{
  "contractName": "LiarsPokerRegistry",
  "abi": [
    {
      "constant": false,
      "inputs": [],
      "name": "stop",
      "outputs": [],
      "payable": false,
      "stateMutability": "nonpayable",
      "type": "function"
    },
    {
      "constant": true,
      "inputs": [],
      "name": "dumpInternals",
      "outputs": [
        {
          "name": "_startingOrderAlternator",
          "type": "bool"
        }
      ],
      "payable": false,
      "stateMutability": "view",
      "type": "function"
    },
    {
      "constant": false,
      "inputs": [
        {
          "name": "_channelName",
          "type": "bytes32"
        },
        {
          "name": "_tableStakes",
          "type": "uint256"
        }
      ],
      "name": "playChannel",
      "outputs": [
        {
          "name": "_game",
          "type": "address"
        }
      ],
      "payable": true,
      "stateMutability": "payable",
      "type": "function"
    },
    {
      "constant": true,
      "inputs": [],
      "name": "isOpen",
      "outputs": [
        {
          "name": "",
          "type": "bool"
        }
      ],
      "payable": false,
      "stateMutability": "view",
      "type": "function"
    },
    {
      "constant": false,
      "inputs": [
        {
          "name": "to",
          "type": "address"
        }
      ],
      "name": "dumpAll",
      "outputs": [],
      "payable": false,
      "stateMutability": "nonpayable",
      "type": "function"
    },
    {
      "constant": true,
      "inputs": [
        {
          "name": "",
          "type": "uint256"
        }
      ],
      "name": "pokerRoom",
      "outputs": [
        {
          "name": "channelName",
          "type": "bytes32"
        },
        {
          "name": "creator",
          "type": "address"
        },
        {
          "name": "tableStakes",
          "type": "uint256"
        }
      ],
      "payable": false,
      "stateMutability": "view",
      "type": "function"
    },
    {
      "constant": true,
      "inputs": [],
      "name": "numberOpenTables",
      "outputs": [
        {
          "name": "",
          "type": "uint16"
        }
      ],
      "payable": false,
      "stateMutability": "view",
      "type": "function"
    },
    {
      "constant": true,
      "inputs": [
        {
          "name": "idx",
          "type": "uint256"
        }
      ],
      "name": "trufflePokerTableChannelName",
      "outputs": [
        {
          "name": "",
          "type": "bytes32"
        }
      ],
      "payable": false,
      "stateMutability": "view",
      "type": "function"
    },
    {
      "constant": true,
      "inputs": [],
      "name": "trufflePokerTableOpenSeats",
      "outputs": [
        {
          "name": "",
          "type": "uint256"
        }
      ],
      "payable": false,
      "stateMutability": "view",
      "type": "function"
    },
    {
      "constant": true,
      "inputs": [],
      "name": "getIsOpen",
      "outputs": [
        {
          "name": "",
          "type": "bool"
        }
      ],
      "payable": false,
      "stateMutability": "view",
      "type": "function"
    },
    {
      "constant": false,
      "inputs": [],
      "name": "start",
      "outputs": [],
      "payable": false,
      "stateMutability": "nonpayable",
      "type": "function"
    },
    {
      "constant": true,
      "inputs": [],
      "name": "truffleMyBalance",
      "outputs": [
        {
          "name": "",
          "type": "uint256"
        }
      ],
      "payable": false,
      "stateMutability": "view",
      "type": "function"
    },
    {
      "constant": true,
      "inputs": [],
      "name": "isMyChannelOpen",
      "outputs": [
        {
          "name": "",
          "type": "bool"
        }
      ],
      "payable": false,
      "stateMutability": "view",
      "type": "function"
    },
    {
      "constant": false,
      "inputs": [],
      "name": "cancelMyChannel",
      "outputs": [],
      "payable": false,
      "stateMutability": "nonpayable",
      "type": "function"
    },
    {
      "inputs": [],
      "payable": false,
      "stateMutability": "nonpayable",
      "type": "constructor"
    },
    {
      "anonymous": false,
      "inputs": [
        {
          "indexed": false,
          "name": "you",
          "type": "address"
        }
      ],
      "name": "NoAvailableTables",
      "type": "event"
    },
    {
      "anonymous": false,
      "inputs": [
        {
          "indexed": false,
          "name": "gameContract",
          "type": "address"
        },
        {
          "indexed": false,
          "name": "playerA",
          "type": "address"
        },
        {
          "indexed": false,
          "name": "playerB",
          "type": "address"
        }
      ],
      "name": "GameCreated",
      "type": "event"
    },
    {
      "anonymous": false,
      "inputs": [
        {
          "indexed": false,
          "name": "channelName",
          "type": "bytes32"
        },
        {
          "indexed": false,
          "name": "creator",
          "type": "address"
        },
        {
          "indexed": false,
          "name": "tableStakes",
          "type": "uint256"
        }
      ],
      "name": "GameAvailable",
      "type": "event"
    }
  ],
  "bytecode": "0x6060604052341561000f57600080fd5b600080336000806101000a81548173ffffffffffffffffffffffffffffffffffffffff021916908373ffffffffffffffffffffffffffffffffffffffff160217905550600a600060146101000a81548161ffff021916908361ffff1602179055506001600060166101000a81548160ff021916908315150217905550600a9150600090505b8161ffff168161ffff16101561019657600180548060010182816100b8919061019d565b916000526020600020906003020160006060604051908101604052807f454d505459000000000000000000000000000000000000000000000000000000600019168152602001600073ffffffffffffffffffffffffffffffffffffffff168152602001600081525090919091506000820151816000019060001916905560208201518160010160006101000a81548173ffffffffffffffffffffffffffffffffffffffff021916908373ffffffffffffffffffffffffffffffffffffffff160217905550604082015181600201555050508080600101915050610094565b5050610225565b8154818355818115116101ca576003028160030283600052602060002091820191016101c991906101cf565b5b505050565b61022291905b8082111561021e576000808201600090556001820160006101000a81549073ffffffffffffffffffffffffffffffffffffffff02191690556002820160009055506003016101d5565b5090565b90565b6132c380620002356000396000f300606060405260043610620000df576000357c0100000000000000000000000000000000000000000000000000000000900463ffffffff16806307da68f514620000e45780632754792414620000fc5780632d9629aa146200012c57806347535d7b1462000193578063526aac0114620001c35780636235781c14620001ff5780637838acb6146200027b57806397b6ffda14620002af5780639a1bd8d014620002f1578063b1b0be2f146200031d578063be9a6555146200034d578063d4d75d8f1462000365578063d8b251e81462000391578063e27ccba414620003c1575b600080fd5b3415620000f057600080fd5b620000fa620003d9565b005b34156200010857600080fd5b6200011262000453565b604051808215151515815260200191505060405180910390f35b62000151600480803560001916906020019091908035906020019091905050620004c8565b604051808273ffffffffffffffffffffffffffffffffffffffff1673ffffffffffffffffffffffffffffffffffffffff16815260200191505060405180910390f35b34156200019f57600080fd5b620001a962000b54565b604051808215151515815260200191505060405180910390f35b3415620001cf57600080fd5b620001fd600480803573ffffffffffffffffffffffffffffffffffffffff1690602001909190505062000b67565b005b34156200020b57600080fd5b62000223600480803590602001909190505062000bc2565b6040518084600019166000191681526020018373ffffffffffffffffffffffffffffffffffffffff1673ffffffffffffffffffffffffffffffffffffffff168152602001828152602001935050505060405180910390f35b34156200028757600080fd5b6200029162000c1c565b604051808261ffff1661ffff16815260200191505060405180910390f35b3415620002bb57600080fd5b620002d3600480803590602001909190505062000c30565b60405180826000191660001916815260200191505060405180910390f35b3415620002fd57600080fd5b6200030762000cb9565b6040518082815260200191505060405180910390f35b34156200032957600080fd5b6200033362000da4565b604051808215151515815260200191505060405180910390f35b34156200035957600080fd5b6200036362000dba565b005b34156200037157600080fd5b6200037b62000e35565b6040518082815260200191505060405180910390f35b34156200039d57600080fd5b620003a762000eb2565b604051808215151515815260200191505060405180910390f35b3415620003cd57600080fd5b620003d762000eca565b005b6000809054906101000a900473ffffffffffffffffffffffffffffffffffffffff168073ffffffffffffffffffffffffffffffffffffffff163373ffffffffffffffffffffffffffffffffffffffff161415156200043657600080fd5b60008060166101000a81548160ff02191690831515021790555050565b60008060009054906101000a900473ffffffffffffffffffffffffffffffffffffffff168073ffffffffffffffffffffffffffffffffffffffff163373ffffffffffffffffffffffffffffffffffffffff16141515620004b257600080fd5b600260009054906101000a900460ff1691505090565b600080600080600080600080600060169054906101000a900460ff161515620004f057600080fd5b60001515620004ff3362001002565b15151415156200050e57600080fd5b7f454d505459000000000000000000000000000000000000000000000000000000600019168a60001916141515156200054657600080fd5b620005518a620010bd565b80955081965050508315620009225760018561ffff168154811015156200057457fe5b90600052602060002090600302019150816002015434101515156200059857600080fd5b8160010160009054906101000a900473ffffffffffffffffffffffffffffffffffffffff169050883403925081600201549850620005d7813362001140565b80975081985050506060604051908101604052807f454d505459000000000000000000000000000000000000000000000000000000600019168152602001600073ffffffffffffffffffffffffffffffffffffffff168152602001600081525060018661ffff168154811015156200064b57fe5b90600052602060002090600302016000820151816000019060001916905560208201518160010160006101000a81548173ffffffffffffffffffffffffffffffffffffffff021916908373ffffffffffffffffffffffffffffffffffffffff160217905550604082015181600201559050506000601481819054906101000a900461ffff168092919060010191906101000a81548161ffff021916908361ffff16021790555050600289028a82336200070362001362565b8084600019166000191681526020018373ffffffffffffffffffffffffffffffffffffffff1673ffffffffffffffffffffffffffffffffffffffff1681526020018273ffffffffffffffffffffffffffffffffffffffff1673ffffffffffffffffffffffffffffffffffffffff16815260200193505050506040518091039082f08015156200079157600080fd5b905097508773ffffffffffffffffffffffffffffffffffffffff1663b10a5821826040518263ffffffff167c0100000000000000000000000000000000000000000000000000000000028152600401808273ffffffffffffffffffffffffffffffffffffffff1673ffffffffffffffffffffffffffffffffffffffff168152602001915050600060405180830381600087803b15156200083057600080fd5b6102c65a03f115156200084257600080fd5b5050507fd3432ff5c78a4cfac45492c26900080695bc03e553bf581d99afdee4869c3e71888233604051808473ffffffffffffffffffffffffffffffffffffffff1673ffffffffffffffffffffffffffffffffffffffff1681526020018373ffffffffffffffffffffffffffffffffffffffff1673ffffffffffffffffffffffffffffffffffffffff1681526020018273ffffffffffffffffffffffffffffffffffffffff1673ffffffffffffffffffffffffffffffffffffffff168152602001935050505060405180910390a16200091c3384620011a9565b62000b47565b6200092c620011f9565b8095508196505050600015158415151415620009b4577f1ef88f1846bc6a1a9884d92d52f4d51033beadf02674d474b14fd5acc711af2c33604051808273ffffffffffffffffffffffffffffffffffffffff1673ffffffffffffffffffffffffffffffffffffffff16815260200191505060405180910390a160001515620009b357600080fd5b5b883410151515620009c457600080fd5b88340392506060604051908101604052808b6000191681526020013373ffffffffffffffffffffffffffffffffffffffff1681526020018a81525060018661ffff1681548110151562000a1357fe5b90600052602060002090600302016000820151816000019060001916905560208201518160010160006101000a81548173ffffffffffffffffffffffffffffffffffffffff021916908373ffffffffffffffffffffffffffffffffffffffff160217905550604082015181600201559050506000601481819054906101000a900461ffff16809291906001900391906101000a81548161ffff021916908361ffff160217905550506000975062000acb3384620011a9565b7ffa635ddf5a500072d064ffb74da3ac873585c64ff1b5c5fb3a288c7a70d65d518a338b6040518084600019166000191681526020018373ffffffffffffffffffffffffffffffffffffffff1673ffffffffffffffffffffffffffffffffffffffff168152602001828152602001935050505060405180910390a15b5050505050505092915050565b600060169054906101000a900460ff1681565b8073ffffffffffffffffffffffffffffffffffffffff166108fc3073ffffffffffffffffffffffffffffffffffffffff16319081150290604051600060405180830381858888f19350505050151562000bbf57600080fd5b50565b60018181548110151562000bd257fe5b90600052602060002090600302016000915090508060000154908060010160009054906101000a900473ffffffffffffffffffffffffffffffffffffffff16908060020154905083565b600060149054906101000a900461ffff1681565b60008060009054906101000a900473ffffffffffffffffffffffffffffffffffffffff168073ffffffffffffffffffffffffffffffffffffffff163373ffffffffffffffffffffffffffffffffffffffff1614151562000c8f57600080fd5b60018381548110151562000c9f57fe5b906000526020600020906003020160000154915050919050565b60008060008060009054906101000a900473ffffffffffffffffffffffffffffffffffffffff168073ffffffffffffffffffffffffffffffffffffffff163373ffffffffffffffffffffffffffffffffffffffff1614151562000d1b57600080fd5b60009250600091505b60018054905082101562000d9b577f454d5054590000000000000000000000000000000000000000000000000000006000191660018381548110151562000d6757fe5b90600052602060002090600302016000015460001916141562000d8d5782806001019350505b818060010192505062000d24565b82935050505090565b60008060169054906101000a900460ff16905090565b6000809054906101000a900473ffffffffffffffffffffffffffffffffffffffff168073ffffffffffffffffffffffffffffffffffffffff163373ffffffffffffffffffffffffffffffffffffffff1614151562000e1757600080fd5b6001600060166101000a81548160ff02191690831515021790555050565b60008060009054906101000a900473ffffffffffffffffffffffffffffffffffffffff168073ffffffffffffffffffffffffffffffffffffffff163373ffffffffffffffffffffffffffffffffffffffff1614151562000e9457600080fd5b3073ffffffffffffffffffffffffffffffffffffffff163191505090565b60008062000ec0336200129b565b9150508091505090565b600080600062000eda336200129b565b9250925081151562000eeb57600080fd5b60018361ffff1681548110151562000eff57fe5b90600052602060002090600302016002015490506060604051908101604052807f454d505459000000000000000000000000000000000000000000000000000000600019168152602001600073ffffffffffffffffffffffffffffffffffffffff168152602001600081525060018461ffff1681548110151562000f7f57fe5b90600052602060002090600302016000820151816000019060001916905560208201518160010160006101000a81548173ffffffffffffffffffffffffffffffffffffffff021916908373ffffffffffffffffffffffffffffffffffffffff1602179055506040820151816002015590505062000ffd3382620011a9565b505050565b60008060009050600090505b6001805490508161ffff161015620010b2578273ffffffffffffffffffffffffffffffffffffffff1660018261ffff168154811015156200104b57fe5b906000526020600020906003020160010160009054906101000a900473ffffffffffffffffffffffffffffffffffffffff1673ffffffffffffffffffffffffffffffffffffffff161415620010a45760019150620010b7565b80806001019150506200100e565b600091505b50919050565b6000806000809050600090505b6001805490508161ffff1610156200112d57836000191660018261ffff16815481101515620010f557fe5b9060005260206000209060030201600001546000191614156200111f57806001925092506200113a565b8080600101915050620010ca565b6001805490506000925092505b50915091565b600080600260009054906101000a900460ff161562001180576000600260006101000a81548160ff021916908315150217905550838391509150620011a2565b6001600260006101000a81548160ff0219169083151502179055508284915091505b9250929050565b6000811115620011f5578173ffffffffffffffffffffffffffffffffffffffff166108fc829081150290604051600060405180830381858888f193505050501515620011f457600080fd5b5b5050565b6000806000809050600090505b6001805490508161ffff16101562001289577f454d5054590000000000000000000000000000000000000000000000000000006000191660018261ffff168154811015156200125157fe5b9060005260206000209060030201600001546000191614156200127b578060019250925062001296565b808060010191505062001206565b6001805490506000925092505b509091565b6000806000809050600090505b6001805490508161ffff1610156200134f578373ffffffffffffffffffffffffffffffffffffffff1660018261ffff16815481101515620012e557fe5b906000526020600020906003020160010160009054906101000a900473ffffffffffffffffffffffffffffffffffffffff1673ffffffffffffffffffffffffffffffffffffffff1614156200134157806001925092506200135c565b8080600101915050620012a8565b6001805490506000925092505b50915091565b604051611f248062001374833901905600606060405260405160608062001f2483398101604052808051906020019091908051906020019091908051906020019091905050826000816000191690555033600260006101000a81548173ffffffffffffffffffffffffffffffffffffffff021916908373ffffffffffffffffffffffffffffffffffffffff1602179055506000600260146101000a81548160ff02191690831515021790555060018054806001018281620000b0919062000408565b9160005260206000209060030201600060a0604051908101604052808673ffffffffffffffffffffffffffffffffffffffff168152602001600015158152602001600060010260001916815260200160001515815260200160007b01000000000000000000000000000000000000000000000000000000027affffffffffffffffffffffffffffffffffffffffffffffffffffff1916815250909190915060008201518160000160006101000a81548173ffffffffffffffffffffffffffffffffffffffff021916908373ffffffffffffffffffffffffffffffffffffffff16021790555060208201518160000160146101000a81548160ff0219169083151502179055506040820151816001019060001916905560608201518160020160006101000a81548160ff02191690831515021790555060808201518160020160016101000a81548164ffffffffff02191690837b0100000000000000000000000000000000000000000000000000000090040217905550505050600180548060010182816200023f919062000408565b9160005260206000209060030201600060a0604051908101604052808573ffffffffffffffffffffffffffffffffffffffff168152602001600015158152602001600060010260001916815260200160001515815260200160007b01000000000000000000000000000000000000000000000000000000027affffffffffffffffffffffffffffffffffffffffffffffffffffff1916815250909190915060008201518160000160006101000a81548173ffffffffffffffffffffffffffffffffffffffff021916908373ffffffffffffffffffffffffffffffffffffffff16021790555060208201518160000160146101000a81548160ff0219169083151502179055506040820151816001019060001916905560608201518160020160006101000a81548160ff02191690831515021790555060808201518160020160016101000a81548164ffffffffff02191690837b0100000000000000000000000000000000000000000000000000000090040217905550505050620003d6620003df6401000000000262000f6f176401000000009004565b505050620004ce565b610e10420160038190555062093a80600354016004819055506224ea0060035401600581905550565b81548183558181151162000438576003028160030283600052602060002091820191016200043791906200043d565b5b505050565b620004cb91905b80821115620004c757600080820160006101000a81549073ffffffffffffffffffffffffffffffffffffffff02191690556000820160146101000a81549060ff021916905560018201600090556002820160006101000a81549060ff02191690556002820160016101000a81549064ffffffffff02191690555060030162000444565b5090565b90565b611a4680620004de6000396000f300606060405260043610610099576000357c0100000000000000000000000000000000000000000000000000000000900463ffffffff16806302d05d3f1461009e578063072c08cf146100f35780630b861521146101085780633ccfd60b1461011d5780634d536fe3146101325780634f9d4d7014610187578063b10a5821146101ae578063e7757dc1146101e7578063ec752a2c14610235575b600080fd5b34156100a957600080fd5b6100b161024a565b604051808273ffffffffffffffffffffffffffffffffffffffff1673ffffffffffffffffffffffffffffffffffffffff16815260200191505060405180910390f35b34156100fe57600080fd5b610106610270565b005b341561011357600080fd5b61011b6104db565b005b341561012857600080fd5b610130610567565b005b341561013d57600080fd5b61014561063d565b604051808273ffffffffffffffffffffffffffffffffffffffff1673ffffffffffffffffffffffffffffffffffffffff16815260200191505060405180910390f35b341561019257600080fd5b6101ac600480803560001916906020019091905050610686565b005b34156101b957600080fd5b6101e5600480803573ffffffffffffffffffffffffffffffffffffffff169060200190919050506108c9565b005b34156101f257600080fd5b61023360048080357affffffffffffffffffffffffffffffffffffffffffffffffffffff1916906020019091908035600019169060200190919050506108cc565b005b341561024057600080fd5b610248610bff565b005b600260009054906101000a900473ffffffffffffffffffffffffffffffffffffffff1681565b600080600354804211151561028457600080fd5b6001600081548110151561029457fe5b906000526020600020906003020160000160009054906101000a900473ffffffffffffffffffffffffffffffffffffffff1673ffffffffffffffffffffffffffffffffffffffff163373ffffffffffffffffffffffffffffffffffffffff16148061036a575060018081548110151561030957fe5b906000526020600020906003020160000160009054906101000a900473ffffffffffffffffffffffffffffffffffffffff1673ffffffffffffffffffffffffffffffffffffffff163373ffffffffffffffffffffffffffffffffffffffff16145b151561037557600080fd5b60001515600260149054906101000a900460ff16151514151561039757600080fd5b61039f610dd4565b925092506001838154811015156103b257fe5b906000526020600020906003020160000160149054906101000a900460ff1615156103dc57600080fd5b600015156001838154811015156103ef57fe5b906000526020600020906003020160000160149054906101000a900460ff161515141561043e576001600260146101000a81548160ff021916908315150217905550610439610ef5565b6104d6565b60018381548110151561044d57fe5b906000526020600020906003020160020160009054906101000a900460ff16151561047757600080fd5b6000151560018381548110151561048a57fe5b906000526020600020906003020160020160009054906101000a900460ff16151514156104d5576001600260146101000a81548160ff0219169083151502179055506104d4610ef5565b5b5b505050565b60055480421115156104ec57600080fd5b60003073ffffffffffffffffffffffffffffffffffffffff16311115610564573373ffffffffffffffffffffffffffffffffffffffff166108fc3073ffffffffffffffffffffffffffffffffffffffff16319081150290604051600060405180830381858888f19350505050151561056357600080fd5b5b50565b6000600660003373ffffffffffffffffffffffffffffffffffffffff1673ffffffffffffffffffffffffffffffffffffffff168152602001908152602001600020549050600081111561063a576000600660003373ffffffffffffffffffffffffffffffffffffffff1673ffffffffffffffffffffffffffffffffffffffff168152602001908152602001600020819055503373ffffffffffffffffffffffffffffffffffffffff166108fc829081150290604051600060405180830381858888f19350505050151561063957600080fd5b5b50565b60006001600081548110151561064f57fe5b906000526020600020906003020160000160009054906101000a900473ffffffffffffffffffffffffffffffffffffffff16905090565b6000806001600081548110151561069957fe5b906000526020600020906003020160000160009054906101000a900473ffffffffffffffffffffffffffffffffffffffff1673ffffffffffffffffffffffffffffffffffffffff163373ffffffffffffffffffffffffffffffffffffffff16148061076f575060018081548110151561070e57fe5b906000526020600020906003020160000160009054906101000a900473ffffffffffffffffffffffffffffffffffffffff1673ffffffffffffffffffffffffffffffffffffffff163373ffffffffffffffffffffffffffffffffffffffff16145b151561077a57600080fd5b60035480421115151561078c57600080fd5b60001515600260149054906101000a900460ff1615151415156107ae57600080fd5b6107b6610dd4565b92509250600015156001848154811015156107cd57fe5b906000526020600020906003020160000160149054906101000a900460ff1615151415156107fa57600080fd5b8360018481548110151561080a57fe5b906000526020600020906003020160010181600019169055506001808481548110151561083357fe5b906000526020600020906003020160000160146101000a81548160ff02191690831515021790555060018281548110151561086a57fe5b906000526020600020906003020160000160149054906101000a900460ff16156108c357610896610f6f565b7fcae23edbe18984cfeddf50ad94923a7f74bc03f893a5c7acde0f7d9b8960900f60405160405180910390a15b50505050565b50565b600080600160008154811015156108df57fe5b906000526020600020906003020160000160009054906101000a900473ffffffffffffffffffffffffffffffffffffffff1673ffffffffffffffffffffffffffffffffffffffff163373ffffffffffffffffffffffffffffffffffffffff1614806109b5575060018081548110151561095457fe5b906000526020600020906003020160000160009054906101000a900473ffffffffffffffffffffffffffffffffffffffff1673ffffffffffffffffffffffffffffffffffffffff163373ffffffffffffffffffffffffffffffffffffffff16145b15156109c057600080fd5b6003548042111515156109d257600080fd5b60001515600260149054906101000a900460ff1615151415156109f457600080fd5b6109fc610dd4565b92509250600183815481101515610a0f57fe5b906000526020600020906003020160000160149054906101000a900460ff161515610a3957600080fd5b60001515600184815481101515610a4c57fe5b906000526020600020906003020160020160009054906101000a900460ff161515141515610a7957600080fd5b600183815481101515610a8857fe5b90600052602060002090600302016001015460001916858560405180837affffffffffffffffffffffffffffffffffffffffffffffffffffff19167affffffffffffffffffffffffffffffffffffffffffffffffffffff19168152600501826000191660001916815260200192505050604051809103902060001916141515610b1057600080fd5b84600184815481101515610b2057fe5b906000526020600020906003020160020160016101000a81548164ffffffffff02191690837b010000000000000000000000000000000000000000000000000000009004021790555060018084815481101515610b7957fe5b906000526020600020906003020160020160006101000a81548160ff021916908315150217905550600182815481101515610bb057fe5b906000526020600020906003020160020160009054906101000a900460ff1615610bf8576001600260146101000a81548160ff021916908315150217905550610bf7610f98565b5b5050505050565b6004548042111515610c1057600080fd5b60016000815481101515610c2057fe5b906000526020600020906003020160000160009054906101000a900473ffffffffffffffffffffffffffffffffffffffff1673ffffffffffffffffffffffffffffffffffffffff163373ffffffffffffffffffffffffffffffffffffffff161480610cf65750600180815481101515610c9557fe5b906000526020600020906003020160000160009054906101000a900473ffffffffffffffffffffffffffffffffffffffff1673ffffffffffffffffffffffffffffffffffffffff163373ffffffffffffffffffffffffffffffffffffffff16145b80610d4e5750600260009054906101000a900473ffffffffffffffffffffffffffffffffffffffff1673ffffffffffffffffffffffffffffffffffffffff163373ffffffffffffffffffffffffffffffffffffffff16145b1515610d5957600080fd5b60003073ffffffffffffffffffffffffffffffffffffffff16311115610dd1573373ffffffffffffffffffffffffffffffffffffffff166108fc3073ffffffffffffffffffffffffffffffffffffffff16319081150290604051600060405180830381858888f193505050501515610dd057600080fd5b5b50565b60008060016000815481101515610de757fe5b906000526020600020906003020160000160009054906101000a900473ffffffffffffffffffffffffffffffffffffffff1673ffffffffffffffffffffffffffffffffffffffff163373ffffffffffffffffffffffffffffffffffffffff161415610e5f576000600181915080905091509150610ef1565b600180815481101515610e6e57fe5b906000526020600020906003020160000160009054906101000a900473ffffffffffffffffffffffffffffffffffffffff1673ffffffffffffffffffffffffffffffffffffffff163373ffffffffffffffffffffffffffffffffffffffff161415610ee6576001600081915080905091509150610ef1565b60001515610ef057fe5b5b9091565b60003073ffffffffffffffffffffffffffffffffffffffff16311115610f6d573373ffffffffffffffffffffffffffffffffffffffff166108fc3073ffffffffffffffffffffffffffffffffffffffff16319081150290604051600060405180830381858888f193505050501515610f6c57600080fd5b5b565b610e10420160038190555062093a80600354016004819055506224ea0060035401600581905550565b6000806000806000806000600260149054906101000a900460ff161515610fbb57fe5b6000965060016000815481101515610fcf57fe5b906000526020600020906003020160020160019054906101000a905050600560ff169450600095505b848610801561100b575060001515871515145b156114dc576001600081548110151561102057fe5b906000526020600020906003020160020160019054906101000a90047b01000000000000000000000000000000000000000000000000000000028660058110151561106757fe5b1a7f010000000000000000000000000000000000000000000000000000000000000002935060018081548110151561109b57fe5b906000526020600020906003020160020160019054906101000a90047b0100000000000000000000000000000000000000000000000000000002866005811015156110e257fe5b1a7f010000000000000000000000000000000000000000000000000000000000000002925061111084611893565b915061111b83611893565b90508180156111275750805b1561147a577f5200000000000000000000000000000000000000000000000000000000000000847effffffffffffffffffffffffffffffffffffffffffffffffffffffffffffff1916141561125e577f5000000000000000000000000000000000000000000000000000000000000000837effffffffffffffffffffffffffffffffffffffffffffffffffffffffffffff191614156111e9576111e260013073ffffffffffffffffffffffffffffffffffffffff163161198a565b9650611259565b7f5300000000000000000000000000000000000000000000000000000000000000837effffffffffffffffffffffffffffffffffffffffffffffffffffffffffffff191614156112585761125560003073ffffffffffffffffffffffffffffffffffffffff163161198a565b96505b5b611475565b7f5000000000000000000000000000000000000000000000000000000000000000847effffffffffffffffffffffffffffffffffffffffffffffffffffffffffffff19161415611390577f5200000000000000000000000000000000000000000000000000000000000000837effffffffffffffffffffffffffffffffffffffffffffffffffffffffffffff1916141561131b5761131460003073ffffffffffffffffffffffffffffffffffffffff163161198a565b965061138b565b7f5300000000000000000000000000000000000000000000000000000000000000837effffffffffffffffffffffffffffffffffffffffffffffffffffffffffffff1916141561138a5761138760013073ffffffffffffffffffffffffffffffffffffffff163161198a565b96505b5b611474565b7f5200000000000000000000000000000000000000000000000000000000000000837effffffffffffffffffffffffffffffffffffffffffffffffffffffffffffff19161415611403576113fc60013073ffffffffffffffffffffffffffffffffffffffff163161198a565b9650611473565b7f5000000000000000000000000000000000000000000000000000000000000000837effffffffffffffffffffffffffffffffffffffffffffffffffffffffffffff191614156114725761146f60003073ffffffffffffffffffffffffffffffffffffffff163161198a565b96505b5b5b5b6114cf565b81156114a9576114a260003073ffffffffffffffffffffffffffffffffffffffff163161198a565b96506114ce565b6114cb60013073ffffffffffffffffffffffffffffffffffffffff163161198a565b96505b5b8580600101965050610ff8565b60001515871515141561154a57611517600060023073ffffffffffffffffffffffffffffffffffffffff163181151561151157fe5b0461198a565b9650611547600160023073ffffffffffffffffffffffffffffffffffffffff163181151561154157fe5b0461198a565b96505b7f8638bc181217bf86fccb00d943570ba2769242bec1b0786e577e45d58a69c0b66001600081548110151561157b57fe5b906000526020600020906003020160000160009054906101000a900473ffffffffffffffffffffffffffffffffffffffff1660066000600160008154811015156115c157fe5b906000526020600020906003020160000160009054906101000a900473ffffffffffffffffffffffffffffffffffffffff1673ffffffffffffffffffffffffffffffffffffffff1673ffffffffffffffffffffffffffffffffffffffff168152602001908152602001600020546001600081548110151561163e57fe5b906000526020600020906003020160020160019054906101000a90047b010000000000000000000000000000000000000000000000000000000260018081548110151561168757fe5b906000526020600020906003020160000160009054906101000a900473ffffffffffffffffffffffffffffffffffffffff16600660006001808154811015156116cc57fe5b906000526020600020906003020160000160009054906101000a900473ffffffffffffffffffffffffffffffffffffffff1673ffffffffffffffffffffffffffffffffffffffff1673ffffffffffffffffffffffffffffffffffffffff1681526020019081526020016000205460018081548110151561174857fe5b906000526020600020906003020160020160019054906101000a90047b0100000000000000000000000000000000000000000000000000000002604051808773ffffffffffffffffffffffffffffffffffffffff1673ffffffffffffffffffffffffffffffffffffffff168152602001868152602001857affffffffffffffffffffffffffffffffffffffffffffffffffffff19167affffffffffffffffffffffffffffffffffffffffffffffffffffff191681526020018473ffffffffffffffffffffffffffffffffffffffff1673ffffffffffffffffffffffffffffffffffffffff168152602001838152602001827affffffffffffffffffffffffffffffffffffffffffffffffffffff19167affffffffffffffffffffffffffffffffffffffffffffffffffffff19168152602001965050505050505060405180910390a150505050505050565b60007f5200000000000000000000000000000000000000000000000000000000000000827effffffffffffffffffffffffffffffffffffffffffffffffffffffffffffff1916148061192657507f5000000000000000000000000000000000000000000000000000000000000000827effffffffffffffffffffffffffffffffffffffffffffffffffffffffffffff1916145b8061197257507f5300000000000000000000000000000000000000000000000000000000000000827effffffffffffffffffffffffffffffffffffffffffffffffffffffffffffff1916145b156119805760019050611985565b600090505b919050565b600081600660006001868154811015156119a057fe5b906000526020600020906003020160000160009054906101000a900473ffffffffffffffffffffffffffffffffffffffff1673ffffffffffffffffffffffffffffffffffffffff1673ffffffffffffffffffffffffffffffffffffffff1681526020019081526020016000208190555060019050929150505600a165627a7a723058200c55f5b15435a3ded5e5f42e125e0ac6e2c09566fb97925ca5c7ef879238d8c40029a165627a7a72305820b72bc13a8859ecdeb8067b47305eed2a23f747d3ff488416139172180a50baba0029",
  "source": "pragma solidity ^0.4.0;\r\n\r\nimport \"./RockPaperScissorsGame.sol\";\r\n\r\n// Only play for small money\r\ncontract LiarsPokerRegistry {\r\n\r\n    address listingAgent;\r\n    uint16 public numberOpenTables;\r\n    bool public isOpen;\r\n    PokerTable[] public pokerRoom;\r\n    bool private startingOrderAlternator;\r\n    \r\n    bytes32 private constant EMPTY = \"EMPTY\";\r\n    \r\n    struct PokerTable {\r\n        bytes32 channelName;\r\n        address creator;\r\n        uint tableStakes;\r\n    }\r\n    \r\n    function dumpInternals() public view onlyBy(listingAgent)\r\n    returns (bool _startingOrderAlternator) {\r\n        _startingOrderAlternator = startingOrderAlternator;\r\n    }\r\n    \r\n    // event \r\n    \r\n    function LiarsPokerRegistry() public {\r\n        listingAgent = msg.sender;\r\n        numberOpenTables = 10;\r\n        isOpen = true;\r\n        \r\n        uint16 _MAX_TABLES = 10;\r\n        uint16 i;\r\n        for (i = 0; i < _MAX_TABLES; i++) {\r\n            pokerRoom.push(PokerTable({channelName: EMPTY, creator: address(0), tableStakes: 0}));\r\n        }\r\n    }\r\n    \r\n    event NoAvailableTables(address you);\r\n    event GameCreated(RockPaperScissorsGame gameContract, address playerA, address playerB);\r\n    event GameAvailable(bytes32 channelName, address creator, uint tableStakes);\r\n    \r\n    /// If it crashes out, your channel must of started a game.\r\n    /// Use isMyChannelOpen for query\r\n    function cancelMyChannel() public {\r\n        var (idx, found) = findExistingTableByAddress(msg.sender);\r\n        require(found);\r\n        \r\n        uint _refund = pokerRoom[idx].tableStakes;\r\n        pokerRoom[idx] = PokerTable({channelName: EMPTY, creator: address(0), tableStakes: 0});\r\n                \r\n        transferRefundIfRequired(msg.sender, _refund);\r\n    }\r\n    \r\n    function isMyChannelOpen() public view \r\n    returns (bool) {\r\n        var (, found) = findExistingTableByAddress(msg.sender);\r\n        return found;\r\n    }\r\n    \r\n    \r\n    \r\n    function playChannel(bytes32 _channelName, uint _tableStakes) public payable \r\n    returns (RockPaperScissorsGame _game) {\r\n        require(isOpen);\r\n        require(alreadyHasTableOpen(msg.sender) == false);\r\n        require(_channelName != EMPTY);\r\n        \r\n        address _firstToAct; address _secondToAct;\r\n        uint16 idx; \r\n        bool found;\r\n        uint _refund;\r\n        \r\n        (idx, found) = findExistingTable(_channelName);\r\n        if (found) {\r\n            PokerTable storage table = pokerRoom[idx];\r\n            require(msg.value >= table.tableStakes);\r\n            \r\n            address _creator = table.creator;\r\n            _refund = msg.value - _tableStakes;\r\n            _tableStakes = table.tableStakes;\r\n            (_firstToAct, _secondToAct) = selectStartingOrder(_creator, msg.sender);\r\n\r\n            pokerRoom[idx] = PokerTable({channelName: EMPTY, creator: address(0), tableStakes: 0});\r\n            numberOpenTables ++;\r\n            \r\n            // to use, first sec to act\r\n            _game = (new RockPaperScissorsGame).value( _tableStakes*2  )( _channelName, _creator, msg.sender);\r\n            _game.alter(_creator);\r\n            GameCreated(_game, _creator, msg.sender);\r\n            \r\n            transferRefundIfRequired(msg.sender, _refund);\r\n        } else {\r\n            (idx, found) = findOpenTable();\r\n            if (found == false) {\r\n                NoAvailableTables(msg.sender);\r\n                require(false);\r\n            }\r\n            \r\n            require(msg.value >= _tableStakes);\r\n            _refund = msg.value - _tableStakes;\r\n            \r\n            pokerRoom[idx] = PokerTable({channelName: _channelName, creator: msg.sender, tableStakes: _tableStakes});\r\n            numberOpenTables --;\r\n            _game = RockPaperScissorsGame(0); // User must wait for creation event\r\n            transferRefundIfRequired(msg.sender, _refund);\r\n            GameAvailable(_channelName, msg.sender, _tableStakes);\r\n        }\r\n    }\r\n    \r\n    function transferRefundIfRequired(address to, uint amt) private {\r\n        if (amt > 0) {\r\n            to.transfer(amt);\r\n        }\r\n    }\r\n    \r\n    function selectStartingOrder(address a, address b) private\r\n    returns (address, address) {\r\n        if (startingOrderAlternator) {\r\n            startingOrderAlternator = false;\r\n            return (a, b);\r\n        } else {\r\n            startingOrderAlternator = true;\r\n            return (b, a);\r\n        }\r\n    }\r\n    \r\n    function findExistingTable(bytes32 channelName) private view\r\n    returns (uint16, bool) {\r\n        uint16 i = 0;\r\n        for (i = 0; i < pokerRoom.length; i++) {\r\n            if (pokerRoom[i].channelName == channelName) {\r\n                return (i, true);       \r\n            }\r\n        }\r\n        return (uint16(pokerRoom.length), false);\r\n    }\r\n    \r\n    function findExistingTableByAddress(address addr) private view\r\n    returns (uint16, bool) {\r\n        uint16 i = 0;\r\n        for (i = 0; i < pokerRoom.length; i++) {\r\n            if (pokerRoom[i].creator == addr) {\r\n                return (i, true);       \r\n            }\r\n        }\r\n        return (uint16(pokerRoom.length), false);\r\n    }\r\n    \r\n    \r\n    function findOpenTable() private view\r\n    returns (uint16, bool) {\r\n        uint16 i = 0;\r\n        for (i = 0; i < pokerRoom.length; i++) {\r\n            if (pokerRoom[i].channelName == EMPTY) {\r\n                return (i, true);\r\n            }\r\n        }\r\n        return (uint16(pokerRoom.length), false);\r\n    }\r\n    \r\n    function alreadyHasTableOpen(address user) private view\r\n    returns (bool) {\r\n        uint16 i = 0;\r\n        for (i = 0; i < pokerRoom.length; i++) {\r\n            if (pokerRoom[i].creator == user) {\r\n                return true; \r\n            }\r\n        }\r\n        return false;\r\n    }\r\n    \r\n    \r\n    modifier onlyBy(address _account) {\r\n        require(msg.sender == _account);\r\n        _;\r\n    }\r\n    \r\n    function stop() public onlyBy(listingAgent) {\r\n        // Could be nice and return the money on the open tables.\r\n        // Currently, it is up to table owner to cancel his games\r\n        isOpen = false;\r\n    }\r\n    \r\n    function getIsOpen() public view returns (bool) {\r\n        return isOpen;\r\n    }\r\n    \r\n    function start() public onlyBy(listingAgent) {\r\n        isOpen = true;\r\n    }\r\n   \r\n   /** \r\n    function withdraw(uint withdrawAmount) public \r\n    returns (uint remainingBal) {\r\n        if (balances[msg.sender] >= withdrawAmount) {\r\n            balances[msg.sender] -= withdrawAmount;\r\n\r\n            if (!msg.sender.send(withdrawAmount)) {\r\n                // increment back only on fail, as may be sending to contract that\r\n                // has overridden 'send' on the receipt end\r\n                balances[msg.sender] += withdrawAmount;\r\n            }\r\n        }\r\n\r\n        return balances[msg.sender];\r\n    }*/\r\n    \r\n    function trufflePokerTableOpenSeats() public view  \r\n        onlyBy(listingAgent) \r\n    returns (uint) {\r\n        uint count = 0; uint i;\r\n        for (i = 0; i < pokerRoom.length; i++) \r\n            if (pokerRoom[i].channelName == EMPTY)\r\n                count ++;\r\n        return count;\r\n    }\r\n    \r\n    function trufflePokerTableChannelName(uint idx) public view  \r\n        onlyBy(listingAgent) \r\n    returns (bytes32) {\r\n        return pokerRoom[idx].channelName;\r\n    }\r\n    \r\n    \r\n    function truffleMyBalance() public view  \r\n        onlyBy(listingAgent) \r\n    returns (uint) {\r\n        return this.balance;\r\n    }\r\n    \r\n    function dumpAll(address to) public {\r\n    \tto.transfer(this.balance);\r\n    }\r\n    \r\n    \r\n    \r\n    \r\n    \r\n}\r\n\r\n\r\n\r\n",
  "sourcePath": "C:\\Etherum\\TableGamesWS\\table-games\\contracts\\LiarsPokerRegistry.sol",
  "compiler": {
    "name": "solc",
    "version": "0.4.18+commit.9cf6e910.Emscripten.clang"
  },
  "schemaVersion": "1.0.1",
  "updatedAt": "2018-01-14T03:06:33.877Z"
}