{
  "contractName": "LiarsPokerRegistry",
  "abi": [
    {
      "constant": false,
      "inputs": [],
      "name": "stop",
      "outputs": [],
      "payable": false,
      "stateMutability": "nonpayable",
      "type": "function"
    },
    {
      "constant": true,
      "inputs": [],
      "name": "dumpInternals",
      "outputs": [
        {
          "name": "_startingOrderAlternator",
          "type": "bool"
        }
      ],
      "payable": false,
      "stateMutability": "view",
      "type": "function"
    },
    {
      "constant": false,
      "inputs": [
        {
          "name": "_channelName",
          "type": "bytes32"
        },
        {
          "name": "_tableStakes",
          "type": "uint256"
        }
      ],
      "name": "playChannel",
      "outputs": [
        {
          "name": "_game",
          "type": "address"
        }
      ],
      "payable": true,
      "stateMutability": "payable",
      "type": "function"
    },
    {
      "constant": true,
      "inputs": [],
      "name": "isOpen",
      "outputs": [
        {
          "name": "",
          "type": "bool"
        }
      ],
      "payable": false,
      "stateMutability": "view",
      "type": "function"
    },
    {
      "constant": false,
      "inputs": [
        {
          "name": "to",
          "type": "address"
        }
      ],
      "name": "dumpAll",
      "outputs": [],
      "payable": false,
      "stateMutability": "nonpayable",
      "type": "function"
    },
    {
      "constant": true,
      "inputs": [
        {
          "name": "",
          "type": "uint256"
        }
      ],
      "name": "pokerRoom",
      "outputs": [
        {
          "name": "channelName",
          "type": "bytes32"
        },
        {
          "name": "creator",
          "type": "address"
        },
        {
          "name": "tableStakes",
          "type": "uint256"
        }
      ],
      "payable": false,
      "stateMutability": "view",
      "type": "function"
    },
    {
      "constant": true,
      "inputs": [],
      "name": "numberOpenTables",
      "outputs": [
        {
          "name": "",
          "type": "uint16"
        }
      ],
      "payable": false,
      "stateMutability": "view",
      "type": "function"
    },
    {
      "constant": true,
      "inputs": [
        {
          "name": "idx",
          "type": "uint256"
        }
      ],
      "name": "trufflePokerTableChannelName",
      "outputs": [
        {
          "name": "",
          "type": "bytes32"
        }
      ],
      "payable": false,
      "stateMutability": "view",
      "type": "function"
    },
    {
      "constant": true,
      "inputs": [],
      "name": "trufflePokerTableOpenSeats",
      "outputs": [
        {
          "name": "",
          "type": "uint256"
        }
      ],
      "payable": false,
      "stateMutability": "view",
      "type": "function"
    },
    {
      "constant": true,
      "inputs": [],
      "name": "getIsOpen",
      "outputs": [
        {
          "name": "",
          "type": "bool"
        }
      ],
      "payable": false,
      "stateMutability": "view",
      "type": "function"
    },
    {
      "constant": false,
      "inputs": [],
      "name": "start",
      "outputs": [],
      "payable": false,
      "stateMutability": "nonpayable",
      "type": "function"
    },
    {
      "constant": true,
      "inputs": [],
      "name": "truffleMyBalance",
      "outputs": [
        {
          "name": "",
          "type": "uint256"
        }
      ],
      "payable": false,
      "stateMutability": "view",
      "type": "function"
    },
    {
      "constant": true,
      "inputs": [],
      "name": "isMyChannelOpen",
      "outputs": [
        {
          "name": "",
          "type": "bool"
        }
      ],
      "payable": false,
      "stateMutability": "view",
      "type": "function"
    },
    {
      "constant": false,
      "inputs": [],
      "name": "cancelMyChannel",
      "outputs": [],
      "payable": false,
      "stateMutability": "nonpayable",
      "type": "function"
    },
    {
      "inputs": [],
      "payable": false,
      "stateMutability": "nonpayable",
      "type": "constructor"
    },
    {
      "anonymous": false,
      "inputs": [
        {
          "indexed": false,
          "name": "you",
          "type": "address"
        }
      ],
      "name": "NoAvailableTables",
      "type": "event"
    },
    {
      "anonymous": false,
      "inputs": [
        {
          "indexed": false,
          "name": "gameContract",
          "type": "address"
        },
        {
          "indexed": false,
          "name": "playerA",
          "type": "address"
        },
        {
          "indexed": false,
          "name": "playerB",
          "type": "address"
        }
      ],
      "name": "GameCreated",
      "type": "event"
    },
    {
      "anonymous": false,
      "inputs": [
        {
          "indexed": false,
          "name": "channelName",
          "type": "bytes32"
        },
        {
          "indexed": false,
          "name": "creator",
          "type": "address"
        },
        {
          "indexed": false,
          "name": "tableStakes",
          "type": "uint256"
        }
      ],
      "name": "GameAvailable",
      "type": "event"
    }
  ],
  "bytecode": "0x6060604052341561000f57600080fd5b600080336000806101000a81548173ffffffffffffffffffffffffffffffffffffffff021916908373ffffffffffffffffffffffffffffffffffffffff160217905550600a600060146101000a81548161ffff021916908361ffff1602179055506001600060166101000a81548160ff021916908315150217905550600a9150600090505b8161ffff168161ffff16101561019657600180548060010182816100b8919061019d565b916000526020600020906003020160006060604051908101604052807f454d505459000000000000000000000000000000000000000000000000000000600019168152602001600073ffffffffffffffffffffffffffffffffffffffff168152602001600081525090919091506000820151816000019060001916905560208201518160010160006101000a81548173ffffffffffffffffffffffffffffffffffffffff021916908373ffffffffffffffffffffffffffffffffffffffff160217905550604082015181600201555050508080600101915050610094565b5050610225565b8154818355818115116101ca576003028160030283600052602060002091820191016101c991906101cf565b5b505050565b61022291905b8082111561021e576000808201600090556001820160006101000a81549073ffffffffffffffffffffffffffffffffffffffff02191690556002820160009055506003016101d5565b5090565b90565b61388980620002356000396000f300606060405260043610620000df576000357c0100000000000000000000000000000000000000000000000000000000900463ffffffff16806307da68f514620000e45780632754792414620000fc5780632d9629aa146200012c57806347535d7b1462000193578063526aac0114620001c35780636235781c14620001ff5780637838acb6146200027b57806397b6ffda14620002af5780639a1bd8d014620002f1578063b1b0be2f146200031d578063be9a6555146200034d578063d4d75d8f1462000365578063d8b251e81462000391578063e27ccba414620003c1575b600080fd5b3415620000f057600080fd5b620000fa620003d9565b005b34156200010857600080fd5b6200011262000453565b604051808215151515815260200191505060405180910390f35b62000151600480803560001916906020019091908035906020019091905050620004c8565b604051808273ffffffffffffffffffffffffffffffffffffffff1673ffffffffffffffffffffffffffffffffffffffff16815260200191505060405180910390f35b34156200019f57600080fd5b620001a962000aa4565b604051808215151515815260200191505060405180910390f35b3415620001cf57600080fd5b620001fd600480803573ffffffffffffffffffffffffffffffffffffffff1690602001909190505062000ab7565b005b34156200020b57600080fd5b62000223600480803590602001909190505062000b12565b6040518084600019166000191681526020018373ffffffffffffffffffffffffffffffffffffffff1673ffffffffffffffffffffffffffffffffffffffff168152602001828152602001935050505060405180910390f35b34156200028757600080fd5b6200029162000b6c565b604051808261ffff1661ffff16815260200191505060405180910390f35b3415620002bb57600080fd5b620002d3600480803590602001909190505062000b80565b60405180826000191660001916815260200191505060405180910390f35b3415620002fd57600080fd5b6200030762000c09565b6040518082815260200191505060405180910390f35b34156200032957600080fd5b6200033362000cf4565b604051808215151515815260200191505060405180910390f35b34156200035957600080fd5b6200036362000d0a565b005b34156200037157600080fd5b6200037b62000d85565b6040518082815260200191505060405180910390f35b34156200039d57600080fd5b620003a762000e02565b604051808215151515815260200191505060405180910390f35b3415620003cd57600080fd5b620003d762000e1a565b005b6000809054906101000a900473ffffffffffffffffffffffffffffffffffffffff168073ffffffffffffffffffffffffffffffffffffffff163373ffffffffffffffffffffffffffffffffffffffff161415156200043657600080fd5b60008060166101000a81548160ff02191690831515021790555050565b60008060009054906101000a900473ffffffffffffffffffffffffffffffffffffffff168073ffffffffffffffffffffffffffffffffffffffff163373ffffffffffffffffffffffffffffffffffffffff16141515620004b257600080fd5b600260009054906101000a900460ff1691505090565b600080600080600080600080600060169054906101000a900460ff161515620004f057600080fd5b60001515620004ff3362000f52565b15151415156200050e57600080fd5b7f454d505459000000000000000000000000000000000000000000000000000000600019168a60001916141515156200054657600080fd5b620005518a6200100d565b80955081965050508315620008725760018561ffff168154811015156200057457fe5b90600052602060002090600302019150816002015434101515156200059857600080fd5b8160010160009054906101000a900473ffffffffffffffffffffffffffffffffffffffff169050883403925081600201549850620005d7813362001090565b80975081985050506060604051908101604052807f454d505459000000000000000000000000000000000000000000000000000000600019168152602001600073ffffffffffffffffffffffffffffffffffffffff168152602001600081525060018661ffff168154811015156200064b57fe5b90600052602060002090600302016000820151816000019060001916905560208201518160010160006101000a81548173ffffffffffffffffffffffffffffffffffffffff021916908373ffffffffffffffffffffffffffffffffffffffff160217905550604082015181600201559050506000601481819054906101000a900461ffff168092919060010191906101000a81548161ffff021916908361ffff16021790555050600289028a888862000703620012b2565b8084600019166000191681526020018373ffffffffffffffffffffffffffffffffffffffff1673ffffffffffffffffffffffffffffffffffffffff1681526020018273ffffffffffffffffffffffffffffffffffffffff1673ffffffffffffffffffffffffffffffffffffffff16815260200193505050506040518091039082f08015156200079157600080fd5b905097507fd3432ff5c78a4cfac45492c26900080695bc03e553bf581d99afdee4869c3e71888233604051808473ffffffffffffffffffffffffffffffffffffffff1673ffffffffffffffffffffffffffffffffffffffff1681526020018373ffffffffffffffffffffffffffffffffffffffff1673ffffffffffffffffffffffffffffffffffffffff1681526020018273ffffffffffffffffffffffffffffffffffffffff1673ffffffffffffffffffffffffffffffffffffffff168152602001935050505060405180910390a16200086c3384620010f9565b62000a97565b6200087c62001149565b809550819650505060001515841515141562000904577f1ef88f1846bc6a1a9884d92d52f4d51033beadf02674d474b14fd5acc711af2c33604051808273ffffffffffffffffffffffffffffffffffffffff1673ffffffffffffffffffffffffffffffffffffffff16815260200191505060405180910390a1600015156200090357600080fd5b5b8834101515156200091457600080fd5b88340392506060604051908101604052808b6000191681526020013373ffffffffffffffffffffffffffffffffffffffff1681526020018a81525060018661ffff168154811015156200096357fe5b90600052602060002090600302016000820151816000019060001916905560208201518160010160006101000a81548173ffffffffffffffffffffffffffffffffffffffff021916908373ffffffffffffffffffffffffffffffffffffffff160217905550604082015181600201559050506000601481819054906101000a900461ffff16809291906001900391906101000a81548161ffff021916908361ffff160217905550506000975062000a1b3384620010f9565b7ffa635ddf5a500072d064ffb74da3ac873585c64ff1b5c5fb3a288c7a70d65d518a338b6040518084600019166000191681526020018373ffffffffffffffffffffffffffffffffffffffff1673ffffffffffffffffffffffffffffffffffffffff168152602001828152602001935050505060405180910390a15b5050505050505092915050565b600060169054906101000a900460ff1681565b8073ffffffffffffffffffffffffffffffffffffffff166108fc3073ffffffffffffffffffffffffffffffffffffffff16319081150290604051600060405180830381858888f19350505050151562000b0f57600080fd5b50565b60018181548110151562000b2257fe5b90600052602060002090600302016000915090508060000154908060010160009054906101000a900473ffffffffffffffffffffffffffffffffffffffff16908060020154905083565b600060149054906101000a900461ffff1681565b60008060009054906101000a900473ffffffffffffffffffffffffffffffffffffffff168073ffffffffffffffffffffffffffffffffffffffff163373ffffffffffffffffffffffffffffffffffffffff1614151562000bdf57600080fd5b60018381548110151562000bef57fe5b906000526020600020906003020160000154915050919050565b60008060008060009054906101000a900473ffffffffffffffffffffffffffffffffffffffff168073ffffffffffffffffffffffffffffffffffffffff163373ffffffffffffffffffffffffffffffffffffffff1614151562000c6b57600080fd5b60009250600091505b60018054905082101562000ceb577f454d5054590000000000000000000000000000000000000000000000000000006000191660018381548110151562000cb757fe5b90600052602060002090600302016000015460001916141562000cdd5782806001019350505b818060010192505062000c74565b82935050505090565b60008060169054906101000a900460ff16905090565b6000809054906101000a900473ffffffffffffffffffffffffffffffffffffffff168073ffffffffffffffffffffffffffffffffffffffff163373ffffffffffffffffffffffffffffffffffffffff1614151562000d6757600080fd5b6001600060166101000a81548160ff02191690831515021790555050565b60008060009054906101000a900473ffffffffffffffffffffffffffffffffffffffff168073ffffffffffffffffffffffffffffffffffffffff163373ffffffffffffffffffffffffffffffffffffffff1614151562000de457600080fd5b3073ffffffffffffffffffffffffffffffffffffffff163191505090565b60008062000e1033620011eb565b9150508091505090565b600080600062000e2a33620011eb565b9250925081151562000e3b57600080fd5b60018361ffff1681548110151562000e4f57fe5b90600052602060002090600302016002015490506060604051908101604052807f454d505459000000000000000000000000000000000000000000000000000000600019168152602001600073ffffffffffffffffffffffffffffffffffffffff168152602001600081525060018461ffff1681548110151562000ecf57fe5b90600052602060002090600302016000820151816000019060001916905560208201518160010160006101000a81548173ffffffffffffffffffffffffffffffffffffffff021916908373ffffffffffffffffffffffffffffffffffffffff1602179055506040820151816002015590505062000f4d3382620010f9565b505050565b60008060009050600090505b6001805490508161ffff16101562001002578273ffffffffffffffffffffffffffffffffffffffff1660018261ffff1681548110151562000f9b57fe5b906000526020600020906003020160010160009054906101000a900473ffffffffffffffffffffffffffffffffffffffff1673ffffffffffffffffffffffffffffffffffffffff16141562000ff4576001915062001007565b808060010191505062000f5e565b600091505b50919050565b6000806000809050600090505b6001805490508161ffff1610156200107d57836000191660018261ffff168154811015156200104557fe5b9060005260206000209060030201600001546000191614156200106f57806001925092506200108a565b80806001019150506200101a565b6001805490506000925092505b50915091565b600080600260009054906101000a900460ff1615620010d0576000600260006101000a81548160ff021916908315150217905550838391509150620010f2565b6001600260006101000a81548160ff0219169083151502179055508284915091505b9250929050565b600081111562001145578173ffffffffffffffffffffffffffffffffffffffff166108fc829081150290604051600060405180830381858888f1935050505015156200114457600080fd5b5b5050565b6000806000809050600090505b6001805490508161ffff161015620011d9577f454d5054590000000000000000000000000000000000000000000000000000006000191660018261ffff16815481101515620011a157fe5b906000526020600020906003020160000154600019161415620011cb5780600192509250620011e6565b808060010191505062001156565b6001805490506000925092505b509091565b6000806000809050600090505b6001805490508161ffff1610156200129f578373ffffffffffffffffffffffffffffffffffffffff1660018261ffff168154811015156200123557fe5b906000526020600020906003020160010160009054906101000a900473ffffffffffffffffffffffffffffffffffffffff1673ffffffffffffffffffffffffffffffffffffffff161415620012915780600192509250620012ac565b8080600101915050620011f8565b6001805490506000925092505b50915091565b60405161259a80620012c483390190560060606040526040516060806200259a83398101604052808051906020019091908051906020019091908051906020019091905050826000816000191690555033600260006101000a81548173ffffffffffffffffffffffffffffffffffffffff021916908373ffffffffffffffffffffffffffffffffffffffff1602179055506000600260146101000a81548160ff02191690831515021790555060018054806001018281620000b0919062000408565b9160005260206000209060030201600060a0604051908101604052808673ffffffffffffffffffffffffffffffffffffffff168152602001600015158152602001600060010260001916815260200160001515815260200160007b01000000000000000000000000000000000000000000000000000000027affffffffffffffffffffffffffffffffffffffffffffffffffffff1916815250909190915060008201518160000160006101000a81548173ffffffffffffffffffffffffffffffffffffffff021916908373ffffffffffffffffffffffffffffffffffffffff16021790555060208201518160000160146101000a81548160ff0219169083151502179055506040820151816001019060001916905560608201518160020160006101000a81548160ff02191690831515021790555060808201518160020160016101000a81548164ffffffffff02191690837b0100000000000000000000000000000000000000000000000000000090040217905550505050600180548060010182816200023f919062000408565b9160005260206000209060030201600060a0604051908101604052808573ffffffffffffffffffffffffffffffffffffffff168152602001600015158152602001600060010260001916815260200160001515815260200160007b01000000000000000000000000000000000000000000000000000000027affffffffffffffffffffffffffffffffffffffffffffffffffffff1916815250909190915060008201518160000160006101000a81548173ffffffffffffffffffffffffffffffffffffffff021916908373ffffffffffffffffffffffffffffffffffffffff16021790555060208201518160000160146101000a81548160ff0219169083151502179055506040820151816001019060001916905560608201518160020160006101000a81548160ff02191690831515021790555060808201518160020160016101000a81548164ffffffffff02191690837b0100000000000000000000000000000000000000000000000000000090040217905550505050620003d6620003df64010000000002620015e5176401000000009004565b505050620004ce565b610e10420160038190555062093a80600354016004819055506224ea0060035401600581905550565b81548183558181151162000438576003028160030283600052602060002091820191016200043791906200043d565b5b505050565b620004cb91905b80821115620004c757600080820160006101000a81549073ffffffffffffffffffffffffffffffffffffffff02191690556000820160146101000a81549060ff021916905560018201600090556002820160006101000a81549060ff02191690556002820160016101000a81549064ffffffffff02191690555060030162000444565b5090565b90565b6120bc80620004de6000396000f3006060604052600436106100db576000357c0100000000000000000000000000000000000000000000000000000000900463ffffffff16806302d05d3f146100e0578063072c08cf146101355780630b02f5a21461014a5780630b861521146101af5780632443877c146101c45780633ccfd60b146101f55780634c73d94e1461020a5780634f9d4d7014610237578063c1a0b2e61461025e578063c574d1561461028f578063ca8def54146102b8578063e7757dc114610322578063ea0c8d9914610370578063ec752a2c1461039d578063f71d96cb146103b2575b600080fd5b34156100eb57600080fd5b6100f361047d565b604051808273ffffffffffffffffffffffffffffffffffffffff1673ffffffffffffffffffffffffffffffffffffffff16815260200191505060405180910390f35b341561014057600080fd5b6101486104a3565b005b341561015557600080fd5b61015d61070e565b60405180827affffffffffffffffffffffffffffffffffffffffffffffffffffff19167affffffffffffffffffffffffffffffffffffffffffffffffffffff1916815260200191505060405180910390f35b34156101ba57600080fd5b6101c261077b565b005b34156101cf57600080fd5b6101d7610807565b60405180826000191660001916815260200191505060405180910390f35b341561020057600080fd5b61020861080d565b005b341561021557600080fd5b61021d6108e3565b604051808215151515815260200191505060405180910390f35b341561024257600080fd5b61025c600480803560001916906020019091905050610935565b005b341561026957600080fd5b610271610b78565b60405180826000191660001916815260200191505060405180910390f35b341561029a57600080fd5b6102a2610bbd565b6040518082815260200191505060405180910390f35b34156102c357600080fd5b61030460048080357affffffffffffffffffffffffffffffffffffffffffffffffffffff191690602001909190803560001916906020019091905050610ccd565b60405180826000191660001916815260200191505060405180910390f35b341561032d57600080fd5b61036e60048080357affffffffffffffffffffffffffffffffffffffffffffffffffffff191690602001909190803560001916906020019091905050610d39565b005b341561037b57600080fd5b61038361106c565b604051808215151515815260200191505060405180910390f35b34156103a857600080fd5b6103b06110be565b005b34156103bd57600080fd5b6103d36004808035906020019091905050611293565b604051808673ffffffffffffffffffffffffffffffffffffffff1673ffffffffffffffffffffffffffffffffffffffff16815260200185151515158152602001846000191660001916815260200183151515158152602001827affffffffffffffffffffffffffffffffffffffffffffffffffffff19167affffffffffffffffffffffffffffffffffffffffffffffffffffff191681526020019550505050505060405180910390f35b600260009054906101000a900473ffffffffffffffffffffffffffffffffffffffff1681565b60008060035480421115156104b757600080fd5b600160008154811015156104c757fe5b906000526020600020906003020160000160009054906101000a900473ffffffffffffffffffffffffffffffffffffffff1673ffffffffffffffffffffffffffffffffffffffff163373ffffffffffffffffffffffffffffffffffffffff16148061059d575060018081548110151561053c57fe5b906000526020600020906003020160000160009054906101000a900473ffffffffffffffffffffffffffffffffffffffff1673ffffffffffffffffffffffffffffffffffffffff163373ffffffffffffffffffffffffffffffffffffffff16145b15156105a857600080fd5b60001515600260149054906101000a900460ff1615151415156105ca57600080fd5b6105d261133a565b925092506001838154811015156105e557fe5b906000526020600020906003020160000160149054906101000a900460ff16151561060f57600080fd5b6000151560018381548110151561062257fe5b906000526020600020906003020160000160149054906101000a900460ff1615151415610671576001600260146101000a81548160ff02191690831515021790555061066c61145b565b610709565b60018381548110151561068057fe5b906000526020600020906003020160020160009054906101000a900460ff1615156106aa57600080fd5b600015156001838154811015156106bd57fe5b906000526020600020906003020160020160009054906101000a900460ff1615151415610708576001600260146101000a81548160ff02191690831515021790555061070761145b565b5b5b505050565b600080600061071b6114d5565b9150915081151561072b57600080fd5b60018181548110151561073a57fe5b906000526020600020906003020160020160019054906101000a90047b01000000000000000000000000000000000000000000000000000000029250505090565b600554804211151561078c57600080fd5b60003073ffffffffffffffffffffffffffffffffffffffff16311115610804573373ffffffffffffffffffffffffffffffffffffffff166108fc3073ffffffffffffffffffffffffffffffffffffffff16319081150290604051600060405180830381858888f19350505050151561080357600080fd5b5b50565b60005481565b6000600660003373ffffffffffffffffffffffffffffffffffffffff1673ffffffffffffffffffffffffffffffffffffffff16815260200190815260200160002054905060008111156108e0576000600660003373ffffffffffffffffffffffffffffffffffffffff1673ffffffffffffffffffffffffffffffffffffffff168152602001908152602001600020819055503373ffffffffffffffffffffffffffffffffffffffff166108fc829081150290604051600060405180830381858888f1935050505015156108df57600080fd5b5b50565b60008060006108f06114d5565b9150915081151561090057600080fd5b60018181548110151561090f57fe5b906000526020600020906003020160000160149054906101000a900460ff169250505090565b6000806001600081548110151561094857fe5b906000526020600020906003020160000160009054906101000a900473ffffffffffffffffffffffffffffffffffffffff1673ffffffffffffffffffffffffffffffffffffffff163373ffffffffffffffffffffffffffffffffffffffff161480610a1e57506001808154811015156109bd57fe5b906000526020600020906003020160000160009054906101000a900473ffffffffffffffffffffffffffffffffffffffff1673ffffffffffffffffffffffffffffffffffffffff163373ffffffffffffffffffffffffffffffffffffffff16145b1515610a2957600080fd5b600354804211151515610a3b57600080fd5b60001515600260149054906101000a900460ff161515141515610a5d57600080fd5b610a6561133a565b9250925060001515600184815481101515610a7c57fe5b906000526020600020906003020160000160149054906101000a900460ff161515141515610aa957600080fd5b83600184815481101515610ab957fe5b9060005260206000209060030201600101816000191690555060018084815481101515610ae257fe5b906000526020600020906003020160000160146101000a81548160ff021916908315150217905550600182815481101515610b1957fe5b906000526020600020906003020160000160149054906101000a900460ff1615610b7257610b456115e5565b7fcae23edbe18984cfeddf50ad94923a7f74bc03f893a5c7acde0f7d9b8960900f60405160405180910390a15b50505050565b6000806000610b856114d5565b91509150811515610b9557600080fd5b600181815481101515610ba457fe5b9060005260206000209060030201600101549250505090565b600060016000815481101515610bcf57fe5b906000526020600020906003020160000160009054906101000a900473ffffffffffffffffffffffffffffffffffffffff1673ffffffffffffffffffffffffffffffffffffffff163373ffffffffffffffffffffffffffffffffffffffff161480610ca55750600180815481101515610c4457fe5b906000526020600020906003020160000160009054906101000a900473ffffffffffffffffffffffffffffffffffffffff1673ffffffffffffffffffffffffffffffffffffffff163373ffffffffffffffffffffffffffffffffffffffff16145b1515610cb057600080fd5b3073ffffffffffffffffffffffffffffffffffffffff1631905090565b6000828260405180837affffffffffffffffffffffffffffffffffffffffffffffffffffff19167affffffffffffffffffffffffffffffffffffffffffffffffffffff191681526005018260001916600019168152602001925050506040518091039020905092915050565b60008060016000815481101515610d4c57fe5b906000526020600020906003020160000160009054906101000a900473ffffffffffffffffffffffffffffffffffffffff1673ffffffffffffffffffffffffffffffffffffffff163373ffffffffffffffffffffffffffffffffffffffff161480610e225750600180815481101515610dc157fe5b906000526020600020906003020160000160009054906101000a900473ffffffffffffffffffffffffffffffffffffffff1673ffffffffffffffffffffffffffffffffffffffff163373ffffffffffffffffffffffffffffffffffffffff16145b1515610e2d57600080fd5b600354804211151515610e3f57600080fd5b60001515600260149054906101000a900460ff161515141515610e6157600080fd5b610e6961133a565b92509250600183815481101515610e7c57fe5b906000526020600020906003020160000160149054906101000a900460ff161515610ea657600080fd5b60001515600184815481101515610eb957fe5b906000526020600020906003020160020160009054906101000a900460ff161515141515610ee657600080fd5b600183815481101515610ef557fe5b90600052602060002090600302016001015460001916858560405180837affffffffffffffffffffffffffffffffffffffffffffffffffffff19167affffffffffffffffffffffffffffffffffffffffffffffffffffff19168152600501826000191660001916815260200192505050604051809103902060001916141515610f7d57600080fd5b84600184815481101515610f8d57fe5b906000526020600020906003020160020160016101000a81548164ffffffffff02191690837b010000000000000000000000000000000000000000000000000000009004021790555060018084815481101515610fe657fe5b906000526020600020906003020160020160006101000a81548160ff02191690831515021790555060018281548110151561101d57fe5b906000526020600020906003020160020160009054906101000a900460ff1615611065576001600260146101000a81548160ff02191690831515021790555061106461160e565b5b5050505050565b60008060006110796114d5565b9150915081151561108957600080fd5b60018181548110151561109857fe5b906000526020600020906003020160020160009054906101000a900460ff169250505090565b60045480421115156110cf57600080fd5b600160008154811015156110df57fe5b906000526020600020906003020160000160009054906101000a900473ffffffffffffffffffffffffffffffffffffffff1673ffffffffffffffffffffffffffffffffffffffff163373ffffffffffffffffffffffffffffffffffffffff1614806111b5575060018081548110151561115457fe5b906000526020600020906003020160000160009054906101000a900473ffffffffffffffffffffffffffffffffffffffff1673ffffffffffffffffffffffffffffffffffffffff163373ffffffffffffffffffffffffffffffffffffffff16145b8061120d5750600260009054906101000a900473ffffffffffffffffffffffffffffffffffffffff1673ffffffffffffffffffffffffffffffffffffffff163373ffffffffffffffffffffffffffffffffffffffff16145b151561121857600080fd5b60003073ffffffffffffffffffffffffffffffffffffffff16311115611290573373ffffffffffffffffffffffffffffffffffffffff166108fc3073ffffffffffffffffffffffffffffffffffffffff16319081150290604051600060405180830381858888f19350505050151561128f57600080fd5b5b50565b6001818154811015156112a257fe5b90600052602060002090600302016000915090508060000160009054906101000a900473ffffffffffffffffffffffffffffffffffffffff16908060000160149054906101000a900460ff16908060010154908060020160009054906101000a900460ff16908060020160019054906101000a90047b0100000000000000000000000000000000000000000000000000000002905085565b6000806001600081548110151561134d57fe5b906000526020600020906003020160000160009054906101000a900473ffffffffffffffffffffffffffffffffffffffff1673ffffffffffffffffffffffffffffffffffffffff163373ffffffffffffffffffffffffffffffffffffffff1614156113c5576000600181915080905091509150611457565b6001808154811015156113d457fe5b906000526020600020906003020160000160009054906101000a900473ffffffffffffffffffffffffffffffffffffffff1673ffffffffffffffffffffffffffffffffffffffff163373ffffffffffffffffffffffffffffffffffffffff16141561144c576001600081915080905091509150611457565b6000151561145657fe5b5b9091565b60003073ffffffffffffffffffffffffffffffffffffffff163111156114d3573373ffffffffffffffffffffffffffffffffffffffff166108fc3073ffffffffffffffffffffffffffffffffffffffff16319081150290604051600060405180830381858888f1935050505015156114d257600080fd5b5b565b6000803373ffffffffffffffffffffffffffffffffffffffff16600160008154811015156114ff57fe5b906000526020600020906003020160000160009054906101000a900473ffffffffffffffffffffffffffffffffffffffff1673ffffffffffffffffffffffffffffffffffffffff16141561155a5760019150600090506115e1565b3373ffffffffffffffffffffffffffffffffffffffff1660018081548110151561158057fe5b906000526020600020906003020160000160009054906101000a900473ffffffffffffffffffffffffffffffffffffffff1673ffffffffffffffffffffffffffffffffffffffff1614156115db5760019150600190506115e0565b600091505b5b9091565b610e10420160038190555062093a80600354016004819055506224ea0060035401600581905550565b6000806000806000806000600260149054906101000a900460ff16151561163157fe5b600096506001600081548110151561164557fe5b906000526020600020906003020160020160019054906101000a905050600560ff169450600095505b8486108015611681575060001515871515145b15611b52576001600081548110151561169657fe5b906000526020600020906003020160020160019054906101000a90047b0100000000000000000000000000000000000000000000000000000002866005811015156116dd57fe5b1a7f010000000000000000000000000000000000000000000000000000000000000002935060018081548110151561171157fe5b906000526020600020906003020160020160019054906101000a90047b01000000000000000000000000000000000000000000000000000000028660058110151561175857fe5b1a7f010000000000000000000000000000000000000000000000000000000000000002925061178684611f09565b915061179183611f09565b905081801561179d5750805b15611af0577f5200000000000000000000000000000000000000000000000000000000000000847effffffffffffffffffffffffffffffffffffffffffffffffffffffffffffff191614156118d4577f5000000000000000000000000000000000000000000000000000000000000000837effffffffffffffffffffffffffffffffffffffffffffffffffffffffffffff1916141561185f5761185860013073ffffffffffffffffffffffffffffffffffffffff1631612000565b96506118cf565b7f5300000000000000000000000000000000000000000000000000000000000000837effffffffffffffffffffffffffffffffffffffffffffffffffffffffffffff191614156118ce576118cb60003073ffffffffffffffffffffffffffffffffffffffff1631612000565b96505b5b611aeb565b7f5000000000000000000000000000000000000000000000000000000000000000847effffffffffffffffffffffffffffffffffffffffffffffffffffffffffffff19161415611a06577f5200000000000000000000000000000000000000000000000000000000000000837effffffffffffffffffffffffffffffffffffffffffffffffffffffffffffff191614156119915761198a60003073ffffffffffffffffffffffffffffffffffffffff1631612000565b9650611a01565b7f5300000000000000000000000000000000000000000000000000000000000000837effffffffffffffffffffffffffffffffffffffffffffffffffffffffffffff19161415611a00576119fd60013073ffffffffffffffffffffffffffffffffffffffff1631612000565b96505b5b611aea565b7f5200000000000000000000000000000000000000000000000000000000000000837effffffffffffffffffffffffffffffffffffffffffffffffffffffffffffff19161415611a7957611a7260013073ffffffffffffffffffffffffffffffffffffffff1631612000565b9650611ae9565b7f5000000000000000000000000000000000000000000000000000000000000000837effffffffffffffffffffffffffffffffffffffffffffffffffffffffffffff19161415611ae857611ae560003073ffffffffffffffffffffffffffffffffffffffff1631612000565b96505b5b5b5b611b45565b8115611b1f57611b1860003073ffffffffffffffffffffffffffffffffffffffff1631612000565b9650611b44565b611b4160013073ffffffffffffffffffffffffffffffffffffffff1631612000565b96505b5b858060010196505061166e565b600015158715151415611bc057611b8d600060023073ffffffffffffffffffffffffffffffffffffffff1631811515611b8757fe5b04612000565b9650611bbd600160023073ffffffffffffffffffffffffffffffffffffffff1631811515611bb757fe5b04612000565b96505b7f8638bc181217bf86fccb00d943570ba2769242bec1b0786e577e45d58a69c0b660016000815481101515611bf157fe5b906000526020600020906003020160000160009054906101000a900473ffffffffffffffffffffffffffffffffffffffff166006600060016000815481101515611c3757fe5b906000526020600020906003020160000160009054906101000a900473ffffffffffffffffffffffffffffffffffffffff1673ffffffffffffffffffffffffffffffffffffffff1673ffffffffffffffffffffffffffffffffffffffff1681526020019081526020016000205460016000815481101515611cb457fe5b906000526020600020906003020160020160019054906101000a90047b0100000000000000000000000000000000000000000000000000000002600180815481101515611cfd57fe5b906000526020600020906003020160000160009054906101000a900473ffffffffffffffffffffffffffffffffffffffff1660066000600180815481101515611d4257fe5b906000526020600020906003020160000160009054906101000a900473ffffffffffffffffffffffffffffffffffffffff1673ffffffffffffffffffffffffffffffffffffffff1673ffffffffffffffffffffffffffffffffffffffff16815260200190815260200160002054600180815481101515611dbe57fe5b906000526020600020906003020160020160019054906101000a90047b0100000000000000000000000000000000000000000000000000000002604051808773ffffffffffffffffffffffffffffffffffffffff1673ffffffffffffffffffffffffffffffffffffffff168152602001868152602001857affffffffffffffffffffffffffffffffffffffffffffffffffffff19167affffffffffffffffffffffffffffffffffffffffffffffffffffff191681526020018473ffffffffffffffffffffffffffffffffffffffff1673ffffffffffffffffffffffffffffffffffffffff168152602001838152602001827affffffffffffffffffffffffffffffffffffffffffffffffffffff19167affffffffffffffffffffffffffffffffffffffffffffffffffffff19168152602001965050505050505060405180910390a150505050505050565b60007f5200000000000000000000000000000000000000000000000000000000000000827effffffffffffffffffffffffffffffffffffffffffffffffffffffffffffff19161480611f9c57507f5000000000000000000000000000000000000000000000000000000000000000827effffffffffffffffffffffffffffffffffffffffffffffffffffffffffffff1916145b80611fe857507f5300000000000000000000000000000000000000000000000000000000000000827effffffffffffffffffffffffffffffffffffffffffffffffffffffffffffff1916145b15611ff65760019050611ffb565b600090505b919050565b6000816006600060018681548110151561201657fe5b906000526020600020906003020160000160009054906101000a900473ffffffffffffffffffffffffffffffffffffffff1673ffffffffffffffffffffffffffffffffffffffff1673ffffffffffffffffffffffffffffffffffffffff1681526020019081526020016000208190555060019050929150505600a165627a7a72305820759ba978bb575c672e5699b6d69ab19efa91e1393d476f1a64ea1d8d07e2a6950029a165627a7a72305820e257a3ebac11ffe5e93298b4859f47cdfa33717fa301a45de498d43bceddb2330029",
  "source": "pragma solidity ^0.4.0;\r\n\r\nimport \"./RockPaperScissorsGame.sol\";\r\n\r\n// Only play for small money\r\ncontract LiarsPokerRegistry {\r\n\r\n    address listingAgent;\r\n    uint16 public numberOpenTables;\r\n    bool public isOpen;\r\n    PokerTable[] public pokerRoom;\r\n    bool private startingOrderAlternator;\r\n    \r\n    bytes32 private constant EMPTY = \"EMPTY\";\r\n    \r\n    struct PokerTable {\r\n        bytes32 channelName;\r\n        address creator;\r\n        uint tableStakes;\r\n    }\r\n    \r\n    function dumpInternals() public view onlyBy(listingAgent)\r\n    returns (bool _startingOrderAlternator) {\r\n        _startingOrderAlternator = startingOrderAlternator;\r\n    }\r\n    \r\n    // event \r\n    \r\n    function LiarsPokerRegistry() public {\r\n        listingAgent = msg.sender;\r\n        numberOpenTables = 10;\r\n        isOpen = true;\r\n        \r\n        uint16 _MAX_TABLES = 10;\r\n        uint16 i;\r\n        for (i = 0; i < _MAX_TABLES; i++) {\r\n            pokerRoom.push(PokerTable({channelName: EMPTY, creator: address(0), tableStakes: 0}));\r\n        }\r\n    }\r\n    \r\n    event NoAvailableTables(address you);\r\n    event GameCreated(RockPaperScissorsGame gameContract, address playerA, address playerB);\r\n    event GameAvailable(bytes32 channelName, address creator, uint tableStakes);\r\n    \r\n    /// If it crashes out, your channel must of started a game.\r\n    /// Use isMyChannelOpen for query\r\n    function cancelMyChannel() public {\r\n        var (idx, found) = findExistingTableByAddress(msg.sender);\r\n        require(found);\r\n        \r\n        uint _refund = pokerRoom[idx].tableStakes;\r\n        pokerRoom[idx] = PokerTable({channelName: EMPTY, creator: address(0), tableStakes: 0});\r\n                \r\n        transferRefundIfRequired(msg.sender, _refund);\r\n    }\r\n    \r\n    function isMyChannelOpen() public view \r\n    returns (bool) {\r\n        var (, found) = findExistingTableByAddress(msg.sender);\r\n        return found;\r\n    }\r\n    \r\n    \r\n    \r\n    function playChannel(bytes32 _channelName, uint _tableStakes) public payable \r\n    returns (RockPaperScissorsGame _game) {\r\n        require(isOpen);\r\n        require(alreadyHasTableOpen(msg.sender) == false);\r\n        require(_channelName != EMPTY);\r\n        \r\n        address _firstToAct; address _secondToAct;\r\n        uint16 idx; \r\n        bool found;\r\n        uint _refund;\r\n        \r\n        (idx, found) = findExistingTable(_channelName);\r\n        if (found) {\r\n            PokerTable storage table = pokerRoom[idx];\r\n            require(msg.value >= table.tableStakes);\r\n            \r\n            address _creator = table.creator;\r\n            _refund = msg.value - _tableStakes;\r\n            _tableStakes = table.tableStakes;\r\n            (_firstToAct, _secondToAct) = selectStartingOrder(_creator, msg.sender);\r\n\r\n            pokerRoom[idx] = PokerTable({channelName: EMPTY, creator: address(0), tableStakes: 0});\r\n            numberOpenTables ++;\r\n            \r\n            // to use, first sec to act\r\n            _game = (new RockPaperScissorsGame).value( _tableStakes*2  )( _channelName, _firstToAct, _secondToAct);\r\n            //_game.alter(msg.sender);\r\n            GameCreated(_game, _creator, msg.sender);\r\n            \r\n            transferRefundIfRequired(msg.sender, _refund);\r\n        } else {\r\n            (idx, found) = findOpenTable();\r\n            if (found == false) {\r\n                NoAvailableTables(msg.sender);\r\n                require(false);\r\n            }\r\n            \r\n            require(msg.value >= _tableStakes);\r\n            _refund = msg.value - _tableStakes;\r\n            \r\n            pokerRoom[idx] = PokerTable({channelName: _channelName, creator: msg.sender, tableStakes: _tableStakes});\r\n            numberOpenTables --;\r\n            _game = RockPaperScissorsGame(0); // User must wait for creation event\r\n            transferRefundIfRequired(msg.sender, _refund);\r\n            GameAvailable(_channelName, msg.sender, _tableStakes);\r\n        }\r\n    }\r\n    \r\n    function transferRefundIfRequired(address to, uint amt) private {\r\n        if (amt > 0) {\r\n            to.transfer(amt);\r\n        }\r\n    }\r\n    \r\n    function selectStartingOrder(address a, address b) private\r\n    returns (address, address) {\r\n        if (startingOrderAlternator) {\r\n            startingOrderAlternator = false;\r\n            return (a, b);\r\n        } else {\r\n            startingOrderAlternator = true;\r\n            return (b, a);\r\n        }\r\n    }\r\n    \r\n    function findExistingTable(bytes32 channelName) private view\r\n    returns (uint16, bool) {\r\n        uint16 i = 0;\r\n        for (i = 0; i < pokerRoom.length; i++) {\r\n            if (pokerRoom[i].channelName == channelName) {\r\n                return (i, true);       \r\n            }\r\n        }\r\n        return (uint16(pokerRoom.length), false);\r\n    }\r\n    \r\n    function findExistingTableByAddress(address addr) private view\r\n    returns (uint16, bool) {\r\n        uint16 i = 0;\r\n        for (i = 0; i < pokerRoom.length; i++) {\r\n            if (pokerRoom[i].creator == addr) {\r\n                return (i, true);       \r\n            }\r\n        }\r\n        return (uint16(pokerRoom.length), false);\r\n    }\r\n    \r\n    \r\n    function findOpenTable() private view\r\n    returns (uint16, bool) {\r\n        uint16 i = 0;\r\n        for (i = 0; i < pokerRoom.length; i++) {\r\n            if (pokerRoom[i].channelName == EMPTY) {\r\n                return (i, true);\r\n            }\r\n        }\r\n        return (uint16(pokerRoom.length), false);\r\n    }\r\n    \r\n    function alreadyHasTableOpen(address user) private view\r\n    returns (bool) {\r\n        uint16 i = 0;\r\n        for (i = 0; i < pokerRoom.length; i++) {\r\n            if (pokerRoom[i].creator == user) {\r\n                return true; \r\n            }\r\n        }\r\n        return false;\r\n    }\r\n    \r\n    \r\n    modifier onlyBy(address _account) {\r\n        require(msg.sender == _account);\r\n        _;\r\n    }\r\n    \r\n    function stop() public onlyBy(listingAgent) {\r\n        // Could be nice and return the money on the open tables.\r\n        // Currently, it is up to table owner to cancel his games\r\n        isOpen = false;\r\n    }\r\n    \r\n    function getIsOpen() public view returns (bool) {\r\n        return isOpen;\r\n    }\r\n    \r\n    function start() public onlyBy(listingAgent) {\r\n        isOpen = true;\r\n    }\r\n   \r\n   /** \r\n    function withdraw(uint withdrawAmount) public \r\n    returns (uint remainingBal) {\r\n        if (balances[msg.sender] >= withdrawAmount) {\r\n            balances[msg.sender] -= withdrawAmount;\r\n\r\n            if (!msg.sender.send(withdrawAmount)) {\r\n                // increment back only on fail, as may be sending to contract that\r\n                // has overridden 'send' on the receipt end\r\n                balances[msg.sender] += withdrawAmount;\r\n            }\r\n        }\r\n\r\n        return balances[msg.sender];\r\n    }*/\r\n    \r\n    function trufflePokerTableOpenSeats() public view  \r\n        onlyBy(listingAgent) \r\n    returns (uint) {\r\n        uint count = 0; uint i;\r\n        for (i = 0; i < pokerRoom.length; i++) \r\n            if (pokerRoom[i].channelName == EMPTY)\r\n                count ++;\r\n        return count;\r\n    }\r\n    \r\n    function trufflePokerTableChannelName(uint idx) public view  \r\n        onlyBy(listingAgent) \r\n    returns (bytes32) {\r\n        return pokerRoom[idx].channelName;\r\n    }\r\n    \r\n    \r\n    function truffleMyBalance() public view  \r\n        onlyBy(listingAgent) \r\n    returns (uint) {\r\n        return this.balance;\r\n    }\r\n    \r\n    function dumpAll(address to) public {\r\n    \tto.transfer(this.balance);\r\n    }\r\n    \r\n    \r\n    \r\n    \r\n    \r\n}\r\n\r\n\r\n\r\n",
  "sourcePath": "C:\\Etherum\\TableGamesWS\\table-games\\contracts\\LiarsPokerRegistry.sol",
  "compiler": {
    "name": "solc",
    "version": "0.4.18+commit.9cf6e910.Emscripten.clang"
  },
  "schemaVersion": "1.0.1",
  "updatedAt": "2018-01-15T00:29:23.775Z"
}