{
  "contractName": "LiarsPoker",
  "abi": [
    {
      "constant": true,
      "inputs": [],
      "name": "creator",
      "outputs": [
        {
          "name": "",
          "type": "address"
        }
      ],
      "payable": false,
      "stateMutability": "view",
      "type": "function"
    },
    {
      "constant": false,
      "inputs": [],
      "name": "withdrawlDueToTimeout",
      "outputs": [],
      "payable": false,
      "stateMutability": "nonpayable",
      "type": "function"
    },
    {
      "constant": false,
      "inputs": [],
      "name": "withdrawlDueToLostPlayers",
      "outputs": [],
      "payable": false,
      "stateMutability": "nonpayable",
      "type": "function"
    },
    {
      "constant": true,
      "inputs": [],
      "name": "nextToAct",
      "outputs": [
        {
          "name": "",
          "type": "address"
        }
      ],
      "payable": false,
      "stateMutability": "view",
      "type": "function"
    },
    {
      "constant": true,
      "inputs": [],
      "name": "waitingToAct",
      "outputs": [
        {
          "name": "",
          "type": "address"
        }
      ],
      "payable": false,
      "stateMutability": "view",
      "type": "function"
    },
    {
      "constant": false,
      "inputs": [],
      "name": "withdrawlDueToDefunc",
      "outputs": [],
      "payable": false,
      "stateMutability": "nonpayable",
      "type": "function"
    },
    {
      "inputs": [
        {
          "name": "_channelName",
          "type": "bytes32"
        },
        {
          "name": "_firstToAct",
          "type": "address"
        },
        {
          "name": "_secondToAct",
          "type": "address"
        }
      ],
      "payable": true,
      "stateMutability": "payable",
      "type": "constructor"
    }
  ],
  "bytecode": "0x60606040526040516060806106a083398101604052808051906020019091908051906020019091908051906020019091905050826000816000191690555033600360006101000a81548173ffffffffffffffffffffffffffffffffffffffff021916908373ffffffffffffffffffffffffffffffffffffffff16021790555081600160006101000a81548173ffffffffffffffffffffffffffffffffffffffff021916908373ffffffffffffffffffffffffffffffffffffffff16021790555080600260006101000a81548173ffffffffffffffffffffffffffffffffffffffff021916908373ffffffffffffffffffffffffffffffffffffffff160217905550610e10420160048190555062093a80600454016005819055506224ea0060045401600681905550505050610567806101396000396000f300606060405260043610610078576000357c0100000000000000000000000000000000000000000000000000000000900463ffffffff16806302d05d3f1461007d578063072c08cf146100d25780630b861521146100e75780639c9c2c60146100fc578063af6a30fa14610151578063ec752a2c146101a6575b600080fd5b341561008857600080fd5b6100906101bb565b604051808273ffffffffffffffffffffffffffffffffffffffff1673ffffffffffffffffffffffffffffffffffffffff16815260200191505060405180910390f35b34156100dd57600080fd5b6100e56101e1565b005b34156100f257600080fd5b6100fa6102cb565b005b341561010757600080fd5b61010f610357565b604051808273ffffffffffffffffffffffffffffffffffffffff1673ffffffffffffffffffffffffffffffffffffffff16815260200191505060405180910390f35b341561015c57600080fd5b61016461037d565b604051808273ffffffffffffffffffffffffffffffffffffffff1673ffffffffffffffffffffffffffffffffffffffff16815260200191505060405180910390f35b34156101b157600080fd5b6101b96103a3565b005b600360009054906101000a900473ffffffffffffffffffffffffffffffffffffffff1681565b60045480421115156101f257600080fd5b600260009054906101000a900473ffffffffffffffffffffffffffffffffffffffff168073ffffffffffffffffffffffffffffffffffffffff163373ffffffffffffffffffffffffffffffffffffffff1614151561024f57600080fd5b60003073ffffffffffffffffffffffffffffffffffffffff163111156102c7573373ffffffffffffffffffffffffffffffffffffffff166108fc3073ffffffffffffffffffffffffffffffffffffffff16319081150290604051600060405180830381858888f1935050505015156102c657600080fd5b5b5050565b60065480421115156102dc57600080fd5b60003073ffffffffffffffffffffffffffffffffffffffff16311115610354573373ffffffffffffffffffffffffffffffffffffffff166108fc3073ffffffffffffffffffffffffffffffffffffffff16319081150290604051600060405180830381858888f19350505050151561035357600080fd5b5b50565b600160009054906101000a900473ffffffffffffffffffffffffffffffffffffffff1681565b600260009054906101000a900473ffffffffffffffffffffffffffffffffffffffff1681565b60055480421115156103b457600080fd5b600160009054906101000a900473ffffffffffffffffffffffffffffffffffffffff1673ffffffffffffffffffffffffffffffffffffffff163373ffffffffffffffffffffffffffffffffffffffff16148061045d5750600260009054906101000a900473ffffffffffffffffffffffffffffffffffffffff1673ffffffffffffffffffffffffffffffffffffffff163373ffffffffffffffffffffffffffffffffffffffff16145b806104b55750600360009054906101000a900473ffffffffffffffffffffffffffffffffffffffff1673ffffffffffffffffffffffffffffffffffffffff163373ffffffffffffffffffffffffffffffffffffffff16145b15156104c057600080fd5b60003073ffffffffffffffffffffffffffffffffffffffff16311115610538573373ffffffffffffffffffffffffffffffffffffffff166108fc3073ffffffffffffffffffffffffffffffffffffffff16319081150290604051600060405180830381858888f19350505050151561053757600080fd5b5b505600a165627a7a72305820f482ea12a8dec3860f7f3a083619c9b50b69c736c3ec5edca3d1ffbfec79ca150029",
  "source": "pragma solidity ^0.4.0;\n\ncontract LiarsPokerRegistry {\n\n    address listingAgent;\n    uint16 public numberOpenTables;\n    bool public isOpen;\n    PokerTable[] public pokerRoom;\n    bool private startingOrderAlternator;\n    \n    bytes32 private constant EMPTY = \"EMPTY\";\n    \n    struct PokerTable {\n        bytes32 channelName;\n        address creator;\n        uint tableStakes;\n    }\n    \n    function dumpInternals() public view onlyBy(listingAgent)\n    returns (bool _startingOrderAlternator) {\n        _startingOrderAlternator = startingOrderAlternator;\n    }\n    \n    // event \n    \n    function LiarsPokerRegistry() public {\n        listingAgent = msg.sender;\n        numberOpenTables = 10;\n        isOpen = true;\n        \n        uint16 _MAX_TABLES = 10;\n        uint16 i;\n        for (i = 0; i < _MAX_TABLES; i++) {\n            pokerRoom.push(PokerTable({channelName: EMPTY, creator: address(0), tableStakes: 0}));\n        }\n    }\n    \n    event NoAvailableTables(address you);\n    event GameCreated(LiarsPoker gameContract, address playerA, address playerB);\n    event GameAvailable(bytes32 channelName, address creator, uint tableStakes);\n    \n    function playChannel(bytes32 _channelName, uint _tableStakes) public payable \n    returns (LiarsPoker _game) {\n        require(isOpen);\n        require(alreadyHasTableOpen(msg.sender) == false);\n        \n        address _firstToAct; address _secondToAct;\n        uint16 idx; \n        bool found;\n        uint _refund;\n        \n        (idx, found) = findExistingTable(_channelName);\n        if (found) {\n            PokerTable storage table = pokerRoom[idx];\n            require(msg.value >= table.tableStakes);\n            \n            address _creator = table.creator;\n            _refund = msg.value - _tableStakes;\n            _tableStakes = table.tableStakes;\n            (_firstToAct, _secondToAct) = selectStartingOrder(_creator, msg.sender);\n\n            pokerRoom[idx] = PokerTable({channelName: EMPTY, creator: address(0), tableStakes: 0});\n            numberOpenTables ++;\n            \n            _game = (new LiarsPoker).value( _tableStakes*2  )( _channelName, _creator, msg.sender);\n            GameCreated(_game, _creator, msg.sender);\n            \n            transferRefundIfRequired(msg.sender, _refund);\n        } else {\n            (idx, found) = findOpenTable();\n            if (found == false) {\n                NoAvailableTables(msg.sender);\n                require(false);\n            }\n            \n            require(msg.value >= table.tableStakes);\n            _refund = msg.value - _tableStakes;\n            \n            pokerRoom[idx] = PokerTable({channelName: _channelName, creator: msg.sender, tableStakes: _tableStakes});\n            numberOpenTables --;\n            _game = LiarsPoker(0); // User must wait for creation event\n            transferRefundIfRequired(msg.sender, _refund);\n            GameAvailable(_channelName, msg.sender, _tableStakes);\n        }\n    }\n    \n    function transferRefundIfRequired(address to, uint amt) private {\n        if (amt > 0) {\n            to.transfer(amt);\n        }\n    }\n    \n    function selectStartingOrder(address a, address b) private\n    returns (address, address) {\n        if (startingOrderAlternator) {\n            startingOrderAlternator = false;\n            return (a, b);\n        } else {\n            startingOrderAlternator = true;\n            return (b, a);\n        }\n    }\n    \n    function findExistingTable(bytes32 channelName) private view\n    returns (uint16, bool) {\n        uint16 i = 0;\n        for (i = 0; i < pokerRoom.length; i++) {\n            if (pokerRoom[i].channelName == channelName) {\n                return (i, true);       \n            }\n        }\n        return (uint16(pokerRoom.length), false);\n    }\n    \n    function findOpenTable() private view\n    returns (uint16, bool) {\n        uint16 i = 0;\n        for (i = 0; i < pokerRoom.length; i++) {\n            if (pokerRoom[i].channelName == EMPTY) {\n                return (i, true);\n            }\n        }\n        return (uint16(pokerRoom.length), false);\n    }\n    \n    function alreadyHasTableOpen(address user) private view\n    returns (bool) {\n        uint16 i = 0;\n        for (i = 0; i < pokerRoom.length; i++) {\n            if (pokerRoom[i].creator == user) {\n                return true; \n            }\n        }\n        return false;\n    }\n    \n    \n    modifier onlyBy(address _account) {\n        require(msg.sender == _account);\n        _;\n    }\n    \n    function stop() public onlyBy(listingAgent) {\n        // Could be nice and return the money on the open tables.\n        // Currently, it is up to table owner to cancel his games\n        isOpen = false;\n    }\n    \n    function getIsOpen() public view returns (bool) {\n        return isOpen;\n    }\n    \n    function start() public onlyBy(listingAgent) {\n        isOpen = true;\n    }\n   \n   /** \n    function withdraw(uint withdrawAmount) public \n    returns (uint remainingBal) {\n        if (balances[msg.sender] >= withdrawAmount) {\n            balances[msg.sender] -= withdrawAmount;\n\n            if (!msg.sender.send(withdrawAmount)) {\n                // increment back only on fail, as may be sending to contract that\n                // has overridden 'send' on the receipt end\n                balances[msg.sender] += withdrawAmount;\n            }\n        }\n\n        return balances[msg.sender];\n    }*/\n    \n    \n    /**\n    function getListing() public view  \n    returns (bool _isOpen, PokerTable[] _allTables) {\n        _isOpen = isOpen;\n        _allTables = pokerRoom;\n    }*/\n    \n}\n\ncontract LiarsPoker {\n\n    bytes32 channelName;\n    address public nextToAct;\n    address public waitingToAct;\n    address public creator;\n    uint gameTimeout;\n    uint defuncTimeout;\n    uint freeMoneyTimeout;\n    \n    function LiarsPoker(bytes32 _channelName, address _firstToAct, address _secondToAct) public payable {\n        channelName = _channelName;\n        creator = msg.sender;\n        nextToAct = _firstToAct;\n        waitingToAct = _secondToAct;\n        gameTimeout = now + (1 hours);\n        defuncTimeout = gameTimeout + (1 weeks);\n        freeMoneyTimeout = gameTimeout + (4 weeks);\n    }\n    \n    modifier onlyBy(address _account) {\n        require(msg.sender == _account);\n        _;\n    }\n    \n    modifier onlyAfter(uint _time) { \n        require (now > _time);\n        _;\n    }\n    \n    modifier byAnyOneInvolved() {\n        require(msg.sender == nextToAct || msg.sender == waitingToAct || msg.sender == creator);\n        _;\n    }\n\n    \n    function withdrawlDueToTimeout() onlyAfter(gameTimeout) onlyBy(waitingToAct) public {\n        if (this.balance > 0) {\n            msg.sender.transfer(this.balance);\n        }\n    }\n    \n    /// We have given enough time for the players to collect.\n    /// Let anyone involve collect in a reasonable time frame\n    function withdrawlDueToDefunc() onlyAfter(defuncTimeout) byAnyOneInvolved public {\n        if (this.balance > 0) {\n            msg.sender.transfer(this.balance);\n        }\n    }\n    \n    /// No one gives a shit - free money available to anyone (maybe keys lost?)\n    function withdrawlDueToLostPlayers() onlyAfter(freeMoneyTimeout) public {\n        if (this.balance > 0) {\n            msg.sender.transfer(this.balance);\n        }\n    }\n}\n\n\n",
  "sourcePath": "C:\\Etherum\\TableGamesWS\\table-games\\contracts\\Migrations.sol",
  "compiler": {
    "name": "solc",
    "version": "0.4.18+commit.9cf6e910.Emscripten.clang"
  },
  "schemaVersion": "1.0.1",
  "updatedAt": "2018-01-09T04:21:23.696Z"
}