{
  "contractName": "RockPaperScissorsGame",
  "abi": [
    {
      "constant": true,
      "inputs": [],
      "name": "creator",
      "outputs": [
        {
          "name": "",
          "type": "address"
        }
      ],
      "payable": false,
      "stateMutability": "view",
      "type": "function"
    },
    {
      "constant": false,
      "inputs": [],
      "name": "withdrawlDueToTimeout",
      "outputs": [],
      "payable": false,
      "stateMutability": "nonpayable",
      "type": "function"
    },
    {
      "constant": false,
      "inputs": [],
      "name": "withdrawlDueToLostPlayers",
      "outputs": [],
      "payable": false,
      "stateMutability": "nonpayable",
      "type": "function"
    },
    {
      "constant": false,
      "inputs": [],
      "name": "withdraw",
      "outputs": [],
      "payable": false,
      "stateMutability": "nonpayable",
      "type": "function"
    },
    {
      "constant": true,
      "inputs": [],
      "name": "doit",
      "outputs": [
        {
          "name": "",
          "type": "address"
        }
      ],
      "payable": false,
      "stateMutability": "view",
      "type": "function"
    },
    {
      "constant": false,
      "inputs": [
        {
          "name": "_hashedHand",
          "type": "bytes32"
        }
      ],
      "name": "submitHashedHand",
      "outputs": [],
      "payable": false,
      "stateMutability": "nonpayable",
      "type": "function"
    },
    {
      "constant": false,
      "inputs": [
        {
          "name": "x",
          "type": "address"
        }
      ],
      "name": "alter",
      "outputs": [],
      "payable": false,
      "stateMutability": "nonpayable",
      "type": "function"
    },
    {
      "constant": false,
      "inputs": [
        {
          "name": "_hand",
          "type": "bytes5"
        },
        {
          "name": "_secretSalt",
          "type": "bytes32"
        }
      ],
      "name": "revealHand",
      "outputs": [],
      "payable": false,
      "stateMutability": "nonpayable",
      "type": "function"
    },
    {
      "constant": false,
      "inputs": [],
      "name": "withdrawlDueToDefunc",
      "outputs": [],
      "payable": false,
      "stateMutability": "nonpayable",
      "type": "function"
    },
    {
      "inputs": [
        {
          "name": "_channelName",
          "type": "bytes32"
        },
        {
          "name": "_playerOne",
          "type": "address"
        },
        {
          "name": "_playerTwo",
          "type": "address"
        }
      ],
      "payable": true,
      "stateMutability": "payable",
      "type": "constructor"
    },
    {
      "anonymous": false,
      "inputs": [],
      "name": "AllHandsSubmitted",
      "type": "event"
    },
    {
      "anonymous": false,
      "inputs": [
        {
          "indexed": false,
          "name": "p1",
          "type": "address"
        },
        {
          "indexed": false,
          "name": "p1Bal",
          "type": "uint256"
        },
        {
          "indexed": false,
          "name": "p1Hand",
          "type": "bytes5"
        },
        {
          "indexed": false,
          "name": "p2",
          "type": "address"
        },
        {
          "indexed": false,
          "name": "p2Bal",
          "type": "uint256"
        },
        {
          "indexed": false,
          "name": "p2Hand",
          "type": "bytes5"
        }
      ],
      "name": "GameCompletedNormal",
      "type": "event"
    }
  ],
  "bytecode": "0x606060405260405160608062001ee383398101604052808051906020019091908051906020019091908051906020019091905050826000816000191690555033600260006101000a81548173ffffffffffffffffffffffffffffffffffffffff021916908373ffffffffffffffffffffffffffffffffffffffff1602179055506000600260146101000a81548160ff02191690831515021790555060018054806001018281620000b0919062000408565b9160005260206000209060030201600060a0604051908101604052808673ffffffffffffffffffffffffffffffffffffffff168152602001600015158152602001600060010260001916815260200160001515815260200160007b01000000000000000000000000000000000000000000000000000000027affffffffffffffffffffffffffffffffffffffffffffffffffffff1916815250909190915060008201518160000160006101000a81548173ffffffffffffffffffffffffffffffffffffffff021916908373ffffffffffffffffffffffffffffffffffffffff16021790555060208201518160000160146101000a81548160ff0219169083151502179055506040820151816001019060001916905560608201518160020160006101000a81548160ff02191690831515021790555060808201518160020160016101000a81548164ffffffffff02191690837b0100000000000000000000000000000000000000000000000000000090040217905550505050600180548060010182816200023f919062000408565b9160005260206000209060030201600060a0604051908101604052808573ffffffffffffffffffffffffffffffffffffffff168152602001600015158152602001600060010260001916815260200160001515815260200160007b01000000000000000000000000000000000000000000000000000000027affffffffffffffffffffffffffffffffffffffffffffffffffffff1916815250909190915060008201518160000160006101000a81548173ffffffffffffffffffffffffffffffffffffffff021916908373ffffffffffffffffffffffffffffffffffffffff16021790555060208201518160000160146101000a81548160ff0219169083151502179055506040820151816001019060001916905560608201518160020160006101000a81548160ff02191690831515021790555060808201518160020160016101000a81548164ffffffffff02191690837b0100000000000000000000000000000000000000000000000000000090040217905550505050620003d6620003df6401000000000262000f2e176401000000009004565b505050620004ce565b610e10420160038190555062093a80600354016004819055506224ea0060035401600581905550565b81548183558181151162000438576003028160030283600052602060002091820191016200043791906200043d565b5b505050565b620004cb91905b80821115620004c757600080820160006101000a81549073ffffffffffffffffffffffffffffffffffffffff02191690556000820160146101000a81549060ff021916905560018201600090556002820160006101000a81549060ff02191690556002820160016101000a81549064ffffffffff02191690555060030162000444565b5090565b90565b611a0580620004de6000396000f300606060405260043610610099576000357c0100000000000000000000000000000000000000000000000000000000900463ffffffff16806302d05d3f1461009e578063072c08cf146100f35780630b861521146101085780633ccfd60b1461011d5780634d536fe3146101325780634f9d4d7014610187578063b10a5821146101ae578063e7757dc1146101e7578063ec752a2c14610235575b600080fd5b34156100a957600080fd5b6100b161024a565b604051808273ffffffffffffffffffffffffffffffffffffffff1673ffffffffffffffffffffffffffffffffffffffff16815260200191505060405180910390f35b34156100fe57600080fd5b610106610270565b005b341561011357600080fd5b61011b6104db565b005b341561012857600080fd5b610130610567565b005b341561013d57600080fd5b61014561063d565b604051808273ffffffffffffffffffffffffffffffffffffffff1673ffffffffffffffffffffffffffffffffffffffff16815260200191505060405180910390f35b341561019257600080fd5b6101ac600480803560001916906020019091905050610645565b005b34156101b957600080fd5b6101e5600480803573ffffffffffffffffffffffffffffffffffffffff16906020019091905050610888565b005b34156101f257600080fd5b61023360048080357affffffffffffffffffffffffffffffffffffffffffffffffffffff19169060200190919080356000191690602001909190505061088b565b005b341561024057600080fd5b610248610bbe565b005b600260009054906101000a900473ffffffffffffffffffffffffffffffffffffffff1681565b600080600354804211151561028457600080fd5b6001600081548110151561029457fe5b906000526020600020906003020160000160009054906101000a900473ffffffffffffffffffffffffffffffffffffffff1673ffffffffffffffffffffffffffffffffffffffff163373ffffffffffffffffffffffffffffffffffffffff16148061036a575060018081548110151561030957fe5b906000526020600020906003020160000160009054906101000a900473ffffffffffffffffffffffffffffffffffffffff1673ffffffffffffffffffffffffffffffffffffffff163373ffffffffffffffffffffffffffffffffffffffff16145b151561037557600080fd5b60001515600260149054906101000a900460ff16151514151561039757600080fd5b61039f610d93565b925092506001838154811015156103b257fe5b906000526020600020906003020160000160149054906101000a900460ff1615156103dc57600080fd5b600015156001838154811015156103ef57fe5b906000526020600020906003020160000160149054906101000a900460ff161515141561043e576001600260146101000a81548160ff021916908315150217905550610439610eb4565b6104d6565b60018381548110151561044d57fe5b906000526020600020906003020160020160009054906101000a900460ff16151561047757600080fd5b6000151560018381548110151561048a57fe5b906000526020600020906003020160020160009054906101000a900460ff16151514156104d5576001600260146101000a81548160ff0219169083151502179055506104d4610eb4565b5b5b505050565b60055480421115156104ec57600080fd5b60003073ffffffffffffffffffffffffffffffffffffffff16311115610564573373ffffffffffffffffffffffffffffffffffffffff166108fc3073ffffffffffffffffffffffffffffffffffffffff16319081150290604051600060405180830381858888f19350505050151561056357600080fd5b5b50565b6000600660003373ffffffffffffffffffffffffffffffffffffffff1673ffffffffffffffffffffffffffffffffffffffff168152602001908152602001600020549050600081111561063a576000600660003373ffffffffffffffffffffffffffffffffffffffff1673ffffffffffffffffffffffffffffffffffffffff168152602001908152602001600020819055503373ffffffffffffffffffffffffffffffffffffffff166108fc829081150290604051600060405180830381858888f19350505050151561063957600080fd5b5b50565b600080905090565b6000806001600081548110151561065857fe5b906000526020600020906003020160000160009054906101000a900473ffffffffffffffffffffffffffffffffffffffff1673ffffffffffffffffffffffffffffffffffffffff163373ffffffffffffffffffffffffffffffffffffffff16148061072e57506001808154811015156106cd57fe5b906000526020600020906003020160000160009054906101000a900473ffffffffffffffffffffffffffffffffffffffff1673ffffffffffffffffffffffffffffffffffffffff163373ffffffffffffffffffffffffffffffffffffffff16145b151561073957600080fd5b60035480421115151561074b57600080fd5b60001515600260149054906101000a900460ff16151514151561076d57600080fd5b610775610d93565b925092506000151560018481548110151561078c57fe5b906000526020600020906003020160000160149054906101000a900460ff1615151415156107b957600080fd5b836001848154811015156107c957fe5b90600052602060002090600302016001018160001916905550600180848154811015156107f257fe5b906000526020600020906003020160000160146101000a81548160ff02191690831515021790555060018281548110151561082957fe5b906000526020600020906003020160000160149054906101000a900460ff161561088257610855610f2e565b7fcae23edbe18984cfeddf50ad94923a7f74bc03f893a5c7acde0f7d9b8960900f60405160405180910390a15b50505050565b50565b6000806001600081548110151561089e57fe5b906000526020600020906003020160000160009054906101000a900473ffffffffffffffffffffffffffffffffffffffff1673ffffffffffffffffffffffffffffffffffffffff163373ffffffffffffffffffffffffffffffffffffffff161480610974575060018081548110151561091357fe5b906000526020600020906003020160000160009054906101000a900473ffffffffffffffffffffffffffffffffffffffff1673ffffffffffffffffffffffffffffffffffffffff163373ffffffffffffffffffffffffffffffffffffffff16145b151561097f57600080fd5b60035480421115151561099157600080fd5b60001515600260149054906101000a900460ff1615151415156109b357600080fd5b6109bb610d93565b925092506001838154811015156109ce57fe5b906000526020600020906003020160000160149054906101000a900460ff1615156109f857600080fd5b60001515600184815481101515610a0b57fe5b906000526020600020906003020160020160009054906101000a900460ff161515141515610a3857600080fd5b600183815481101515610a4757fe5b90600052602060002090600302016001015460001916858560405180837affffffffffffffffffffffffffffffffffffffffffffffffffffff19167affffffffffffffffffffffffffffffffffffffffffffffffffffff19168152600501826000191660001916815260200192505050604051809103902060001916141515610acf57600080fd5b84600184815481101515610adf57fe5b906000526020600020906003020160020160016101000a81548164ffffffffff02191690837b010000000000000000000000000000000000000000000000000000009004021790555060018084815481101515610b3857fe5b906000526020600020906003020160020160006101000a81548160ff021916908315150217905550600182815481101515610b6f57fe5b906000526020600020906003020160020160009054906101000a900460ff1615610bb7576001600260146101000a81548160ff021916908315150217905550610bb6610f57565b5b5050505050565b6004548042111515610bcf57600080fd5b60016000815481101515610bdf57fe5b906000526020600020906003020160000160009054906101000a900473ffffffffffffffffffffffffffffffffffffffff1673ffffffffffffffffffffffffffffffffffffffff163373ffffffffffffffffffffffffffffffffffffffff161480610cb55750600180815481101515610c5457fe5b906000526020600020906003020160000160009054906101000a900473ffffffffffffffffffffffffffffffffffffffff1673ffffffffffffffffffffffffffffffffffffffff163373ffffffffffffffffffffffffffffffffffffffff16145b80610d0d5750600260009054906101000a900473ffffffffffffffffffffffffffffffffffffffff1673ffffffffffffffffffffffffffffffffffffffff163373ffffffffffffffffffffffffffffffffffffffff16145b1515610d1857600080fd5b60003073ffffffffffffffffffffffffffffffffffffffff16311115610d90573373ffffffffffffffffffffffffffffffffffffffff166108fc3073ffffffffffffffffffffffffffffffffffffffff16319081150290604051600060405180830381858888f193505050501515610d8f57600080fd5b5b50565b60008060016000815481101515610da657fe5b906000526020600020906003020160000160009054906101000a900473ffffffffffffffffffffffffffffffffffffffff1673ffffffffffffffffffffffffffffffffffffffff163373ffffffffffffffffffffffffffffffffffffffff161415610e1e576000600181915080905091509150610eb0565b600180815481101515610e2d57fe5b906000526020600020906003020160000160009054906101000a900473ffffffffffffffffffffffffffffffffffffffff1673ffffffffffffffffffffffffffffffffffffffff163373ffffffffffffffffffffffffffffffffffffffff161415610ea5576001600081915080905091509150610eb0565b60001515610eaf57fe5b5b9091565b60003073ffffffffffffffffffffffffffffffffffffffff16311115610f2c573373ffffffffffffffffffffffffffffffffffffffff166108fc3073ffffffffffffffffffffffffffffffffffffffff16319081150290604051600060405180830381858888f193505050501515610f2b57600080fd5b5b565b610e10420160038190555062093a80600354016004819055506224ea0060035401600581905550565b6000806000806000806000600260149054906101000a900460ff161515610f7a57fe5b6000965060016000815481101515610f8e57fe5b906000526020600020906003020160020160019054906101000a905050600560ff169450600095505b8486108015610fca575060001515871515145b1561149b5760016000815481101515610fdf57fe5b906000526020600020906003020160020160019054906101000a90047b01000000000000000000000000000000000000000000000000000000028660058110151561102657fe5b1a7f010000000000000000000000000000000000000000000000000000000000000002935060018081548110151561105a57fe5b906000526020600020906003020160020160019054906101000a90047b0100000000000000000000000000000000000000000000000000000002866005811015156110a157fe5b1a7f01000000000000000000000000000000000000000000000000000000000000000292506110cf84611852565b91506110da83611852565b90508180156110e65750805b15611439577f5200000000000000000000000000000000000000000000000000000000000000847effffffffffffffffffffffffffffffffffffffffffffffffffffffffffffff1916141561121d577f5000000000000000000000000000000000000000000000000000000000000000837effffffffffffffffffffffffffffffffffffffffffffffffffffffffffffff191614156111a8576111a160013073ffffffffffffffffffffffffffffffffffffffff1631611949565b9650611218565b7f5300000000000000000000000000000000000000000000000000000000000000837effffffffffffffffffffffffffffffffffffffffffffffffffffffffffffff191614156112175761121460003073ffffffffffffffffffffffffffffffffffffffff1631611949565b96505b5b611434565b7f5000000000000000000000000000000000000000000000000000000000000000847effffffffffffffffffffffffffffffffffffffffffffffffffffffffffffff1916141561134f577f5200000000000000000000000000000000000000000000000000000000000000837effffffffffffffffffffffffffffffffffffffffffffffffffffffffffffff191614156112da576112d360003073ffffffffffffffffffffffffffffffffffffffff1631611949565b965061134a565b7f5300000000000000000000000000000000000000000000000000000000000000837effffffffffffffffffffffffffffffffffffffffffffffffffffffffffffff191614156113495761134660013073ffffffffffffffffffffffffffffffffffffffff1631611949565b96505b5b611433565b7f5200000000000000000000000000000000000000000000000000000000000000837effffffffffffffffffffffffffffffffffffffffffffffffffffffffffffff191614156113c2576113bb60013073ffffffffffffffffffffffffffffffffffffffff1631611949565b9650611432565b7f5000000000000000000000000000000000000000000000000000000000000000837effffffffffffffffffffffffffffffffffffffffffffffffffffffffffffff191614156114315761142e60003073ffffffffffffffffffffffffffffffffffffffff1631611949565b96505b5b5b5b61148e565b81156114685761146160003073ffffffffffffffffffffffffffffffffffffffff1631611949565b965061148d565b61148a60013073ffffffffffffffffffffffffffffffffffffffff1631611949565b96505b5b8580600101965050610fb7565b600015158715151415611509576114d6600060023073ffffffffffffffffffffffffffffffffffffffff16318115156114d057fe5b04611949565b9650611506600160023073ffffffffffffffffffffffffffffffffffffffff163181151561150057fe5b04611949565b96505b7f8638bc181217bf86fccb00d943570ba2769242bec1b0786e577e45d58a69c0b66001600081548110151561153a57fe5b906000526020600020906003020160000160009054906101000a900473ffffffffffffffffffffffffffffffffffffffff16600660006001600081548110151561158057fe5b906000526020600020906003020160000160009054906101000a900473ffffffffffffffffffffffffffffffffffffffff1673ffffffffffffffffffffffffffffffffffffffff1673ffffffffffffffffffffffffffffffffffffffff16815260200190815260200160002054600160008154811015156115fd57fe5b906000526020600020906003020160020160019054906101000a90047b010000000000000000000000000000000000000000000000000000000260018081548110151561164657fe5b906000526020600020906003020160000160009054906101000a900473ffffffffffffffffffffffffffffffffffffffff166006600060018081548110151561168b57fe5b906000526020600020906003020160000160009054906101000a900473ffffffffffffffffffffffffffffffffffffffff1673ffffffffffffffffffffffffffffffffffffffff1673ffffffffffffffffffffffffffffffffffffffff1681526020019081526020016000205460018081548110151561170757fe5b906000526020600020906003020160020160019054906101000a90047b0100000000000000000000000000000000000000000000000000000002604051808773ffffffffffffffffffffffffffffffffffffffff1673ffffffffffffffffffffffffffffffffffffffff168152602001868152602001857affffffffffffffffffffffffffffffffffffffffffffffffffffff19167affffffffffffffffffffffffffffffffffffffffffffffffffffff191681526020018473ffffffffffffffffffffffffffffffffffffffff1673ffffffffffffffffffffffffffffffffffffffff168152602001838152602001827affffffffffffffffffffffffffffffffffffffffffffffffffffff19167affffffffffffffffffffffffffffffffffffffffffffffffffffff19168152602001965050505050505060405180910390a150505050505050565b60007f5200000000000000000000000000000000000000000000000000000000000000827effffffffffffffffffffffffffffffffffffffffffffffffffffffffffffff191614806118e557507f5000000000000000000000000000000000000000000000000000000000000000827effffffffffffffffffffffffffffffffffffffffffffffffffffffffffffff1916145b8061193157507f5300000000000000000000000000000000000000000000000000000000000000827effffffffffffffffffffffffffffffffffffffffffffffffffffffffffffff1916145b1561193f5760019050611944565b600090505b919050565b6000816006600060018681548110151561195f57fe5b906000526020600020906003020160000160009054906101000a900473ffffffffffffffffffffffffffffffffffffffff1673ffffffffffffffffffffffffffffffffffffffff1673ffffffffffffffffffffffffffffffffffffffff1681526020019081526020016000208190555060019050929150505600a165627a7a72305820c9bc4b286b115fb300d5c6404a9045a1ee417b00afa7258172470ab3755402f00029",
  "source": "pragma solidity ^0.4.0;\r\n\r\ncontract RockPaperScissorsGame {\r\n    \r\n    struct Player {\r\n        address addr;\r\n        bool hasSubmitted;\r\n        bytes32 hashedHand;\r\n        bool hasRevealed;\r\n        bytes5 hand;\r\n    }\r\n\r\n    bytes32 channelName;\r\n    Player[] players;\r\n    \r\n    address public creator;\r\n    bool gameOver;\r\n    uint gameTimeout;\r\n    uint defuncTimeout;\r\n    uint freeMoneyTimeout;\r\n    \r\n    mapping(address => uint) winnings;\r\n    \r\n    function RockPaperScissorsGame(bytes32 _channelName, address _playerOne, address _playerTwo) public payable {\r\n        channelName = _channelName;\r\n        creator = msg.sender;\r\n        gameOver = false;\r\n        players.push(Player(_playerOne, false, 0, false, 0));\r\n        players.push(Player(_playerTwo, false, 0, false, 0));\r\n        updateTimeouts();\r\n    }\r\n    \r\n    function alter(address x) public {\r\n    \t//players[1].addr = x;\r\n    }\r\n    \r\n    function doit() public view returns (address) {\r\n    \t//return players[1].addr;\r\n    \treturn 0;\r\n    }\r\n    \r\n    \r\n    function updateTimeouts() private {\r\n        gameTimeout = now + (1 hours);\r\n        defuncTimeout = gameTimeout + (1 weeks);\r\n        freeMoneyTimeout = gameTimeout + (4 weeks);\r\n    }\r\n    \r\n    event AllHandsSubmitted();\r\n    event GameCompletedNormal(address p1, uint p1Bal, bytes5 p1Hand, address p2, uint p2Bal, bytes5 p2Hand);\r\n    \r\n    ///  keccak256(bytes5, bytes32 secretSalt)\r\n    ///  where byte5 = rock(R), paper(P), scissor(S) role 'RRPSR', 'SRRSS', etc \r\n    function submitHashedHand(bytes32 _hashedHand) \r\n        onlyByPlayers \r\n        onlyBefore(gameTimeout) \r\n        gameNotOver\r\n    public {\r\n        var (current, opponent) = getPlayers();\r\n        \r\n        require(players[current].hasSubmitted == false);\r\n        \r\n        players[current].hashedHand = _hashedHand;\r\n        players[current].hasSubmitted = true;\r\n        \r\n        if (players[opponent].hasSubmitted) {\r\n            updateTimeouts(); // Avoid one player not giving the other player time to reveal near gameTimeout\r\n            AllHandsSubmitted();\r\n        }\r\n    }\r\n    \r\n    modifier gameNotOver() {\r\n        require(gameOver == false);\r\n        _;\r\n    }\r\n    \r\n    function revealHand(bytes5 _hand, bytes32 _secretSalt)\r\n        onlyByPlayers\r\n        onlyBefore(gameTimeout)\r\n        gameNotOver\r\n    public {\r\n        var (current, opponent) = getPlayers();\r\n        \r\n        // Verify submitted hand and revealed hands match\r\n        require(players[current].hasSubmitted);\r\n        require(players[current].hasRevealed == false);\r\n        require(keccak256(_hand, _secretSalt) == players[current].hashedHand);\r\n        \r\n        players[current].hand = _hand;\r\n        players[current].hasRevealed = true;\r\n        \r\n        if (players[opponent].hasRevealed) {\r\n            // Game on\r\n            gameOver = true;\r\n            setResultBalances();\r\n        }\r\n    }\r\n    \r\n    function setResultBalances() private {\r\n        assert(gameOver);\r\n        \r\n        bool isDecided = false;\r\n        uint i;\r\n        uint length = players[0].hand.length;\r\n        for (i = 0; i < length && isDecided == false; i++) {\r\n            byte one = players[0].hand[i];\r\n            byte two = players[1].hand[i];\r\n            \r\n            bool oneValid = isValidHand(one);\r\n            bool twoValid = isValidHand(two);\r\n            if (oneValid && twoValid) {\r\n                if (one == 'R') {\r\n                    if (two == 'P') {\r\n                        isDecided = setWinner(1, this.balance);\r\n                    } else if (two == 'S') {\r\n                        isDecided = setWinner(0, this.balance);\r\n                    }\r\n                } else if (one == 'P') {\r\n                    if (two == 'R') {\r\n                        isDecided = setWinner(0, this.balance);\r\n                    } else if (two == 'S') {\r\n                        isDecided = setWinner(1, this.balance);\r\n                    }\r\n                } else {\r\n                    // one -> 'S'\r\n                    if (two == 'R') {\r\n                        isDecided = setWinner(1, this.balance);\r\n                    } else if (two == 'P') {\r\n                        isDecided = setWinner(0, this.balance);\r\n                    }\r\n                }\r\n            } else {\r\n                if (oneValid) {\r\n                    isDecided = setWinner(0, this.balance);\r\n                } else {\r\n                    isDecided = setWinner(1, this.balance);\r\n                }\r\n            }\r\n        }\r\n        if (isDecided == false) {\r\n            isDecided = setWinner(0, this.balance / 2);\r\n            isDecided = setWinner(1, this.balance / 2);\r\n        }\r\n        \r\n        GameCompletedNormal(players[0].addr, winnings[players[0].addr], players[0].hand,\r\n                            players[1].addr, winnings[players[1].addr], players[1].hand);\r\n    }\r\n    \r\n    function setWinner(uint idx, uint amt) private returns (bool) {\r\n        winnings[players[idx].addr] = amt;\r\n        return true;\r\n    }\r\n    \r\n    function withdraw() public {\r\n        uint amt = winnings[msg.sender];\r\n        if (amt > 0) {\r\n            winnings[msg.sender] = 0;\r\n            msg.sender.transfer(amt);\r\n        }\r\n    }\r\n    \r\n    function isValidHand(byte b) private pure returns (bool) {\r\n        if (b == 'R' || b == 'P' || b == 'S') {\r\n            return true;\r\n        } else {\r\n            return false;\r\n        }\r\n    }\r\n    \r\n    function getPlayers() private view returns (uint current, uint opponent) {\r\n        if (msg.sender == players[0].addr) {\r\n            return (0, 1);\r\n        } else if (msg.sender == players[1].addr) {\r\n            return (1, 0);\r\n        } else {\r\n            assert(false);\r\n        }\r\n    }\r\n    \r\n    modifier onlyBy(address _account) {\r\n        require(msg.sender == _account);\r\n        _;\r\n    }\r\n    \r\n    modifier onlyAfter(uint _time) { \r\n        require (now > _time);\r\n        _;\r\n    }\r\n    \r\n    modifier onlyBefore(uint _time) {\r\n        require (now <= _time);\r\n        _;\r\n    }\r\n    \r\n    modifier byAnyOneInvolved() {\r\n        require(msg.sender == players[0].addr || msg.sender == players[1].addr || msg.sender == creator);\r\n        _;\r\n    }\r\n    \r\n    modifier onlyByPlayers() {\r\n        require(msg.sender == players[0].addr || msg.sender == players[1].addr);\r\n        _;\r\n    }\r\n    \r\n    function withdrawlDueToTimeout() \r\n        onlyAfter(gameTimeout) \r\n        onlyByPlayers\r\n        gameNotOver \r\n    public {\r\n        // Must decide which player isn't following the rules and submitting on time\r\n        var (current, opponent) = getPlayers();\r\n        \r\n        require(players[current].hasSubmitted);\r\n        if (players[opponent].hasSubmitted == false) {\r\n            // opponent at fault - give out money\r\n            gameOver = true;\r\n            transferEntireBalanceToSender();\r\n        } else {\r\n            require(players[current].hasRevealed);\r\n            if (players[opponent].hasRevealed == false) {\r\n                // opponent at fault - give out money\r\n                gameOver = true;\r\n                transferEntireBalanceToSender();\r\n            }\r\n        }\r\n    }\r\n    \r\n    function transferEntireBalanceToSender() private {\r\n        if (this.balance > 0) {\r\n            msg.sender.transfer(this.balance);\r\n        }\r\n    }\r\n    \r\n    /// We have given enough time for the players to collect.\r\n    /// Let anyone involve collect in a reasonable time frame\r\n    function withdrawlDueToDefunc() onlyAfter(defuncTimeout) byAnyOneInvolved public {\r\n        if (this.balance > 0) {\r\n            msg.sender.transfer(this.balance);\r\n        }\r\n    }\r\n    \r\n    /// No one gives a shit - free money available to anyone (maybe keys lost?)\r\n    function withdrawlDueToLostPlayers() onlyAfter(freeMoneyTimeout) public {\r\n        if (this.balance > 0) {\r\n            msg.sender.transfer(this.balance);\r\n        }\r\n    }\r\n}\r\n",
  "sourcePath": "C:\\Etherum\\TableGamesWS\\table-games\\contracts\\RockPaperScissorsGame.sol",
  "compiler": {
    "name": "solc",
    "version": "0.4.18+commit.9cf6e910.Emscripten.clang"
  },
  "schemaVersion": "1.0.1",
  "updatedAt": "2018-01-14T03:13:37.949Z"
}