{
  "contractName": "RockPaperScissorsGame",
  "abi": [
    {
      "constant": true,
      "inputs": [],
      "name": "creator",
      "outputs": [
        {
          "name": "",
          "type": "address"
        }
      ],
      "payable": false,
      "stateMutability": "view",
      "type": "function"
    },
    {
      "constant": false,
      "inputs": [],
      "name": "withdrawlDueToTimeout",
      "outputs": [],
      "payable": false,
      "stateMutability": "nonpayable",
      "type": "function"
    },
    {
      "constant": true,
      "inputs": [],
      "name": "getMyHand",
      "outputs": [
        {
          "name": "",
          "type": "bytes5"
        }
      ],
      "payable": false,
      "stateMutability": "view",
      "type": "function"
    },
    {
      "constant": false,
      "inputs": [],
      "name": "withdrawlDueToLostPlayers",
      "outputs": [],
      "payable": false,
      "stateMutability": "nonpayable",
      "type": "function"
    },
    {
      "constant": true,
      "inputs": [],
      "name": "channelName",
      "outputs": [
        {
          "name": "",
          "type": "bytes32"
        }
      ],
      "payable": false,
      "stateMutability": "view",
      "type": "function"
    },
    {
      "constant": false,
      "inputs": [],
      "name": "withdraw",
      "outputs": [],
      "payable": false,
      "stateMutability": "nonpayable",
      "type": "function"
    },
    {
      "constant": true,
      "inputs": [],
      "name": "getMyHasSubmitted",
      "outputs": [
        {
          "name": "",
          "type": "bool"
        }
      ],
      "payable": false,
      "stateMutability": "view",
      "type": "function"
    },
    {
      "constant": false,
      "inputs": [
        {
          "name": "_hashedHand",
          "type": "bytes32"
        }
      ],
      "name": "submitHashedHand",
      "outputs": [],
      "payable": false,
      "stateMutability": "nonpayable",
      "type": "function"
    },
    {
      "constant": true,
      "inputs": [],
      "name": "getMyHashedHand",
      "outputs": [
        {
          "name": "",
          "type": "bytes32"
        }
      ],
      "payable": false,
      "stateMutability": "view",
      "type": "function"
    },
    {
      "constant": true,
      "inputs": [],
      "name": "getGameBalance",
      "outputs": [
        {
          "name": "",
          "type": "uint256"
        }
      ],
      "payable": false,
      "stateMutability": "view",
      "type": "function"
    },
    {
      "constant": false,
      "inputs": [
        {
          "name": "_hand",
          "type": "bytes5"
        },
        {
          "name": "_secretSalt",
          "type": "bytes32"
        }
      ],
      "name": "createBidUtility",
      "outputs": [
        {
          "name": "",
          "type": "bytes32"
        }
      ],
      "payable": false,
      "stateMutability": "nonpayable",
      "type": "function"
    },
    {
      "constant": false,
      "inputs": [
        {
          "name": "_hand",
          "type": "bytes5"
        },
        {
          "name": "_secretSalt",
          "type": "bytes32"
        }
      ],
      "name": "revealHand",
      "outputs": [],
      "payable": false,
      "stateMutability": "nonpayable",
      "type": "function"
    },
    {
      "constant": true,
      "inputs": [],
      "name": "getMyHasRevealed",
      "outputs": [
        {
          "name": "",
          "type": "bool"
        }
      ],
      "payable": false,
      "stateMutability": "view",
      "type": "function"
    },
    {
      "constant": false,
      "inputs": [],
      "name": "withdrawlDueToDefunc",
      "outputs": [],
      "payable": false,
      "stateMutability": "nonpayable",
      "type": "function"
    },
    {
      "constant": true,
      "inputs": [
        {
          "name": "",
          "type": "uint256"
        }
      ],
      "name": "players",
      "outputs": [
        {
          "name": "addr",
          "type": "address"
        },
        {
          "name": "hasSubmitted",
          "type": "bool"
        },
        {
          "name": "hashedHand",
          "type": "bytes32"
        },
        {
          "name": "hasRevealed",
          "type": "bool"
        },
        {
          "name": "hand",
          "type": "bytes5"
        }
      ],
      "payable": false,
      "stateMutability": "view",
      "type": "function"
    },
    {
      "inputs": [
        {
          "name": "_channelName",
          "type": "bytes32"
        },
        {
          "name": "_playerOne",
          "type": "address"
        },
        {
          "name": "_playerTwo",
          "type": "address"
        }
      ],
      "payable": true,
      "stateMutability": "payable",
      "type": "constructor"
    },
    {
      "anonymous": false,
      "inputs": [],
      "name": "AllHandsSubmitted",
      "type": "event"
    },
    {
      "anonymous": false,
      "inputs": [
        {
          "indexed": false,
          "name": "p1",
          "type": "address"
        },
        {
          "indexed": false,
          "name": "p1Bal",
          "type": "uint256"
        },
        {
          "indexed": false,
          "name": "p1Hand",
          "type": "bytes5"
        },
        {
          "indexed": false,
          "name": "p2",
          "type": "address"
        },
        {
          "indexed": false,
          "name": "p2Bal",
          "type": "uint256"
        },
        {
          "indexed": false,
          "name": "p2Hand",
          "type": "bytes5"
        }
      ],
      "name": "GameCompletedNormal",
      "type": "event"
    }
  ],
  "bytecode": "0x60606040526040516060806200259a83398101604052808051906020019091908051906020019091908051906020019091905050826000816000191690555033600260006101000a81548173ffffffffffffffffffffffffffffffffffffffff021916908373ffffffffffffffffffffffffffffffffffffffff1602179055506000600260146101000a81548160ff02191690831515021790555060018054806001018281620000b0919062000408565b9160005260206000209060030201600060a0604051908101604052808673ffffffffffffffffffffffffffffffffffffffff168152602001600015158152602001600060010260001916815260200160001515815260200160007b01000000000000000000000000000000000000000000000000000000027affffffffffffffffffffffffffffffffffffffffffffffffffffff1916815250909190915060008201518160000160006101000a81548173ffffffffffffffffffffffffffffffffffffffff021916908373ffffffffffffffffffffffffffffffffffffffff16021790555060208201518160000160146101000a81548160ff0219169083151502179055506040820151816001019060001916905560608201518160020160006101000a81548160ff02191690831515021790555060808201518160020160016101000a81548164ffffffffff02191690837b0100000000000000000000000000000000000000000000000000000090040217905550505050600180548060010182816200023f919062000408565b9160005260206000209060030201600060a0604051908101604052808573ffffffffffffffffffffffffffffffffffffffff168152602001600015158152602001600060010260001916815260200160001515815260200160007b01000000000000000000000000000000000000000000000000000000027affffffffffffffffffffffffffffffffffffffffffffffffffffff1916815250909190915060008201518160000160006101000a81548173ffffffffffffffffffffffffffffffffffffffff021916908373ffffffffffffffffffffffffffffffffffffffff16021790555060208201518160000160146101000a81548160ff0219169083151502179055506040820151816001019060001916905560608201518160020160006101000a81548160ff02191690831515021790555060808201518160020160016101000a81548164ffffffffff02191690837b0100000000000000000000000000000000000000000000000000000090040217905550505050620003d6620003df64010000000002620015e5176401000000009004565b505050620004ce565b610e10420160038190555062093a80600354016004819055506224ea0060035401600581905550565b81548183558181151162000438576003028160030283600052602060002091820191016200043791906200043d565b5b505050565b620004cb91905b80821115620004c757600080820160006101000a81549073ffffffffffffffffffffffffffffffffffffffff02191690556000820160146101000a81549060ff021916905560018201600090556002820160006101000a81549060ff02191690556002820160016101000a81549064ffffffffff02191690555060030162000444565b5090565b90565b6120bc80620004de6000396000f3006060604052600436106100db576000357c0100000000000000000000000000000000000000000000000000000000900463ffffffff16806302d05d3f146100e0578063072c08cf146101355780630b02f5a21461014a5780630b861521146101af5780632443877c146101c45780633ccfd60b146101f55780634c73d94e1461020a5780634f9d4d7014610237578063c1a0b2e61461025e578063c574d1561461028f578063ca8def54146102b8578063e7757dc114610322578063ea0c8d9914610370578063ec752a2c1461039d578063f71d96cb146103b2575b600080fd5b34156100eb57600080fd5b6100f361047d565b604051808273ffffffffffffffffffffffffffffffffffffffff1673ffffffffffffffffffffffffffffffffffffffff16815260200191505060405180910390f35b341561014057600080fd5b6101486104a3565b005b341561015557600080fd5b61015d61070e565b60405180827affffffffffffffffffffffffffffffffffffffffffffffffffffff19167affffffffffffffffffffffffffffffffffffffffffffffffffffff1916815260200191505060405180910390f35b34156101ba57600080fd5b6101c261077b565b005b34156101cf57600080fd5b6101d7610807565b60405180826000191660001916815260200191505060405180910390f35b341561020057600080fd5b61020861080d565b005b341561021557600080fd5b61021d6108e3565b604051808215151515815260200191505060405180910390f35b341561024257600080fd5b61025c600480803560001916906020019091905050610935565b005b341561026957600080fd5b610271610b78565b60405180826000191660001916815260200191505060405180910390f35b341561029a57600080fd5b6102a2610bbd565b6040518082815260200191505060405180910390f35b34156102c357600080fd5b61030460048080357affffffffffffffffffffffffffffffffffffffffffffffffffffff191690602001909190803560001916906020019091905050610ccd565b60405180826000191660001916815260200191505060405180910390f35b341561032d57600080fd5b61036e60048080357affffffffffffffffffffffffffffffffffffffffffffffffffffff191690602001909190803560001916906020019091905050610d39565b005b341561037b57600080fd5b61038361106c565b604051808215151515815260200191505060405180910390f35b34156103a857600080fd5b6103b06110be565b005b34156103bd57600080fd5b6103d36004808035906020019091905050611293565b604051808673ffffffffffffffffffffffffffffffffffffffff1673ffffffffffffffffffffffffffffffffffffffff16815260200185151515158152602001846000191660001916815260200183151515158152602001827affffffffffffffffffffffffffffffffffffffffffffffffffffff19167affffffffffffffffffffffffffffffffffffffffffffffffffffff191681526020019550505050505060405180910390f35b600260009054906101000a900473ffffffffffffffffffffffffffffffffffffffff1681565b60008060035480421115156104b757600080fd5b600160008154811015156104c757fe5b906000526020600020906003020160000160009054906101000a900473ffffffffffffffffffffffffffffffffffffffff1673ffffffffffffffffffffffffffffffffffffffff163373ffffffffffffffffffffffffffffffffffffffff16148061059d575060018081548110151561053c57fe5b906000526020600020906003020160000160009054906101000a900473ffffffffffffffffffffffffffffffffffffffff1673ffffffffffffffffffffffffffffffffffffffff163373ffffffffffffffffffffffffffffffffffffffff16145b15156105a857600080fd5b60001515600260149054906101000a900460ff1615151415156105ca57600080fd5b6105d261133a565b925092506001838154811015156105e557fe5b906000526020600020906003020160000160149054906101000a900460ff16151561060f57600080fd5b6000151560018381548110151561062257fe5b906000526020600020906003020160000160149054906101000a900460ff1615151415610671576001600260146101000a81548160ff02191690831515021790555061066c61145b565b610709565b60018381548110151561068057fe5b906000526020600020906003020160020160009054906101000a900460ff1615156106aa57600080fd5b600015156001838154811015156106bd57fe5b906000526020600020906003020160020160009054906101000a900460ff1615151415610708576001600260146101000a81548160ff02191690831515021790555061070761145b565b5b5b505050565b600080600061071b6114d5565b9150915081151561072b57600080fd5b60018181548110151561073a57fe5b906000526020600020906003020160020160019054906101000a90047b01000000000000000000000000000000000000000000000000000000029250505090565b600554804211151561078c57600080fd5b60003073ffffffffffffffffffffffffffffffffffffffff16311115610804573373ffffffffffffffffffffffffffffffffffffffff166108fc3073ffffffffffffffffffffffffffffffffffffffff16319081150290604051600060405180830381858888f19350505050151561080357600080fd5b5b50565b60005481565b6000600660003373ffffffffffffffffffffffffffffffffffffffff1673ffffffffffffffffffffffffffffffffffffffff16815260200190815260200160002054905060008111156108e0576000600660003373ffffffffffffffffffffffffffffffffffffffff1673ffffffffffffffffffffffffffffffffffffffff168152602001908152602001600020819055503373ffffffffffffffffffffffffffffffffffffffff166108fc829081150290604051600060405180830381858888f1935050505015156108df57600080fd5b5b50565b60008060006108f06114d5565b9150915081151561090057600080fd5b60018181548110151561090f57fe5b906000526020600020906003020160000160149054906101000a900460ff169250505090565b6000806001600081548110151561094857fe5b906000526020600020906003020160000160009054906101000a900473ffffffffffffffffffffffffffffffffffffffff1673ffffffffffffffffffffffffffffffffffffffff163373ffffffffffffffffffffffffffffffffffffffff161480610a1e57506001808154811015156109bd57fe5b906000526020600020906003020160000160009054906101000a900473ffffffffffffffffffffffffffffffffffffffff1673ffffffffffffffffffffffffffffffffffffffff163373ffffffffffffffffffffffffffffffffffffffff16145b1515610a2957600080fd5b600354804211151515610a3b57600080fd5b60001515600260149054906101000a900460ff161515141515610a5d57600080fd5b610a6561133a565b9250925060001515600184815481101515610a7c57fe5b906000526020600020906003020160000160149054906101000a900460ff161515141515610aa957600080fd5b83600184815481101515610ab957fe5b9060005260206000209060030201600101816000191690555060018084815481101515610ae257fe5b906000526020600020906003020160000160146101000a81548160ff021916908315150217905550600182815481101515610b1957fe5b906000526020600020906003020160000160149054906101000a900460ff1615610b7257610b456115e5565b7fcae23edbe18984cfeddf50ad94923a7f74bc03f893a5c7acde0f7d9b8960900f60405160405180910390a15b50505050565b6000806000610b856114d5565b91509150811515610b9557600080fd5b600181815481101515610ba457fe5b9060005260206000209060030201600101549250505090565b600060016000815481101515610bcf57fe5b906000526020600020906003020160000160009054906101000a900473ffffffffffffffffffffffffffffffffffffffff1673ffffffffffffffffffffffffffffffffffffffff163373ffffffffffffffffffffffffffffffffffffffff161480610ca55750600180815481101515610c4457fe5b906000526020600020906003020160000160009054906101000a900473ffffffffffffffffffffffffffffffffffffffff1673ffffffffffffffffffffffffffffffffffffffff163373ffffffffffffffffffffffffffffffffffffffff16145b1515610cb057600080fd5b3073ffffffffffffffffffffffffffffffffffffffff1631905090565b6000828260405180837affffffffffffffffffffffffffffffffffffffffffffffffffffff19167affffffffffffffffffffffffffffffffffffffffffffffffffffff191681526005018260001916600019168152602001925050506040518091039020905092915050565b60008060016000815481101515610d4c57fe5b906000526020600020906003020160000160009054906101000a900473ffffffffffffffffffffffffffffffffffffffff1673ffffffffffffffffffffffffffffffffffffffff163373ffffffffffffffffffffffffffffffffffffffff161480610e225750600180815481101515610dc157fe5b906000526020600020906003020160000160009054906101000a900473ffffffffffffffffffffffffffffffffffffffff1673ffffffffffffffffffffffffffffffffffffffff163373ffffffffffffffffffffffffffffffffffffffff16145b1515610e2d57600080fd5b600354804211151515610e3f57600080fd5b60001515600260149054906101000a900460ff161515141515610e6157600080fd5b610e6961133a565b92509250600183815481101515610e7c57fe5b906000526020600020906003020160000160149054906101000a900460ff161515610ea657600080fd5b60001515600184815481101515610eb957fe5b906000526020600020906003020160020160009054906101000a900460ff161515141515610ee657600080fd5b600183815481101515610ef557fe5b90600052602060002090600302016001015460001916858560405180837affffffffffffffffffffffffffffffffffffffffffffffffffffff19167affffffffffffffffffffffffffffffffffffffffffffffffffffff19168152600501826000191660001916815260200192505050604051809103902060001916141515610f7d57600080fd5b84600184815481101515610f8d57fe5b906000526020600020906003020160020160016101000a81548164ffffffffff02191690837b010000000000000000000000000000000000000000000000000000009004021790555060018084815481101515610fe657fe5b906000526020600020906003020160020160006101000a81548160ff02191690831515021790555060018281548110151561101d57fe5b906000526020600020906003020160020160009054906101000a900460ff1615611065576001600260146101000a81548160ff02191690831515021790555061106461160e565b5b5050505050565b60008060006110796114d5565b9150915081151561108957600080fd5b60018181548110151561109857fe5b906000526020600020906003020160020160009054906101000a900460ff169250505090565b60045480421115156110cf57600080fd5b600160008154811015156110df57fe5b906000526020600020906003020160000160009054906101000a900473ffffffffffffffffffffffffffffffffffffffff1673ffffffffffffffffffffffffffffffffffffffff163373ffffffffffffffffffffffffffffffffffffffff1614806111b5575060018081548110151561115457fe5b906000526020600020906003020160000160009054906101000a900473ffffffffffffffffffffffffffffffffffffffff1673ffffffffffffffffffffffffffffffffffffffff163373ffffffffffffffffffffffffffffffffffffffff16145b8061120d5750600260009054906101000a900473ffffffffffffffffffffffffffffffffffffffff1673ffffffffffffffffffffffffffffffffffffffff163373ffffffffffffffffffffffffffffffffffffffff16145b151561121857600080fd5b60003073ffffffffffffffffffffffffffffffffffffffff16311115611290573373ffffffffffffffffffffffffffffffffffffffff166108fc3073ffffffffffffffffffffffffffffffffffffffff16319081150290604051600060405180830381858888f19350505050151561128f57600080fd5b5b50565b6001818154811015156112a257fe5b90600052602060002090600302016000915090508060000160009054906101000a900473ffffffffffffffffffffffffffffffffffffffff16908060000160149054906101000a900460ff16908060010154908060020160009054906101000a900460ff16908060020160019054906101000a90047b0100000000000000000000000000000000000000000000000000000002905085565b6000806001600081548110151561134d57fe5b906000526020600020906003020160000160009054906101000a900473ffffffffffffffffffffffffffffffffffffffff1673ffffffffffffffffffffffffffffffffffffffff163373ffffffffffffffffffffffffffffffffffffffff1614156113c5576000600181915080905091509150611457565b6001808154811015156113d457fe5b906000526020600020906003020160000160009054906101000a900473ffffffffffffffffffffffffffffffffffffffff1673ffffffffffffffffffffffffffffffffffffffff163373ffffffffffffffffffffffffffffffffffffffff16141561144c576001600081915080905091509150611457565b6000151561145657fe5b5b9091565b60003073ffffffffffffffffffffffffffffffffffffffff163111156114d3573373ffffffffffffffffffffffffffffffffffffffff166108fc3073ffffffffffffffffffffffffffffffffffffffff16319081150290604051600060405180830381858888f1935050505015156114d257600080fd5b5b565b6000803373ffffffffffffffffffffffffffffffffffffffff16600160008154811015156114ff57fe5b906000526020600020906003020160000160009054906101000a900473ffffffffffffffffffffffffffffffffffffffff1673ffffffffffffffffffffffffffffffffffffffff16141561155a5760019150600090506115e1565b3373ffffffffffffffffffffffffffffffffffffffff1660018081548110151561158057fe5b906000526020600020906003020160000160009054906101000a900473ffffffffffffffffffffffffffffffffffffffff1673ffffffffffffffffffffffffffffffffffffffff1614156115db5760019150600190506115e0565b600091505b5b9091565b610e10420160038190555062093a80600354016004819055506224ea0060035401600581905550565b6000806000806000806000600260149054906101000a900460ff16151561163157fe5b600096506001600081548110151561164557fe5b906000526020600020906003020160020160019054906101000a905050600560ff169450600095505b8486108015611681575060001515871515145b15611b52576001600081548110151561169657fe5b906000526020600020906003020160020160019054906101000a90047b0100000000000000000000000000000000000000000000000000000002866005811015156116dd57fe5b1a7f010000000000000000000000000000000000000000000000000000000000000002935060018081548110151561171157fe5b906000526020600020906003020160020160019054906101000a90047b01000000000000000000000000000000000000000000000000000000028660058110151561175857fe5b1a7f010000000000000000000000000000000000000000000000000000000000000002925061178684611f09565b915061179183611f09565b905081801561179d5750805b15611af0577f5200000000000000000000000000000000000000000000000000000000000000847effffffffffffffffffffffffffffffffffffffffffffffffffffffffffffff191614156118d4577f5000000000000000000000000000000000000000000000000000000000000000837effffffffffffffffffffffffffffffffffffffffffffffffffffffffffffff1916141561185f5761185860013073ffffffffffffffffffffffffffffffffffffffff1631612000565b96506118cf565b7f5300000000000000000000000000000000000000000000000000000000000000837effffffffffffffffffffffffffffffffffffffffffffffffffffffffffffff191614156118ce576118cb60003073ffffffffffffffffffffffffffffffffffffffff1631612000565b96505b5b611aeb565b7f5000000000000000000000000000000000000000000000000000000000000000847effffffffffffffffffffffffffffffffffffffffffffffffffffffffffffff19161415611a06577f5200000000000000000000000000000000000000000000000000000000000000837effffffffffffffffffffffffffffffffffffffffffffffffffffffffffffff191614156119915761198a60003073ffffffffffffffffffffffffffffffffffffffff1631612000565b9650611a01565b7f5300000000000000000000000000000000000000000000000000000000000000837effffffffffffffffffffffffffffffffffffffffffffffffffffffffffffff19161415611a00576119fd60013073ffffffffffffffffffffffffffffffffffffffff1631612000565b96505b5b611aea565b7f5200000000000000000000000000000000000000000000000000000000000000837effffffffffffffffffffffffffffffffffffffffffffffffffffffffffffff19161415611a7957611a7260013073ffffffffffffffffffffffffffffffffffffffff1631612000565b9650611ae9565b7f5000000000000000000000000000000000000000000000000000000000000000837effffffffffffffffffffffffffffffffffffffffffffffffffffffffffffff19161415611ae857611ae560003073ffffffffffffffffffffffffffffffffffffffff1631612000565b96505b5b5b5b611b45565b8115611b1f57611b1860003073ffffffffffffffffffffffffffffffffffffffff1631612000565b9650611b44565b611b4160013073ffffffffffffffffffffffffffffffffffffffff1631612000565b96505b5b858060010196505061166e565b600015158715151415611bc057611b8d600060023073ffffffffffffffffffffffffffffffffffffffff1631811515611b8757fe5b04612000565b9650611bbd600160023073ffffffffffffffffffffffffffffffffffffffff1631811515611bb757fe5b04612000565b96505b7f8638bc181217bf86fccb00d943570ba2769242bec1b0786e577e45d58a69c0b660016000815481101515611bf157fe5b906000526020600020906003020160000160009054906101000a900473ffffffffffffffffffffffffffffffffffffffff166006600060016000815481101515611c3757fe5b906000526020600020906003020160000160009054906101000a900473ffffffffffffffffffffffffffffffffffffffff1673ffffffffffffffffffffffffffffffffffffffff1673ffffffffffffffffffffffffffffffffffffffff1681526020019081526020016000205460016000815481101515611cb457fe5b906000526020600020906003020160020160019054906101000a90047b0100000000000000000000000000000000000000000000000000000002600180815481101515611cfd57fe5b906000526020600020906003020160000160009054906101000a900473ffffffffffffffffffffffffffffffffffffffff1660066000600180815481101515611d4257fe5b906000526020600020906003020160000160009054906101000a900473ffffffffffffffffffffffffffffffffffffffff1673ffffffffffffffffffffffffffffffffffffffff1673ffffffffffffffffffffffffffffffffffffffff16815260200190815260200160002054600180815481101515611dbe57fe5b906000526020600020906003020160020160019054906101000a90047b0100000000000000000000000000000000000000000000000000000002604051808773ffffffffffffffffffffffffffffffffffffffff1673ffffffffffffffffffffffffffffffffffffffff168152602001868152602001857affffffffffffffffffffffffffffffffffffffffffffffffffffff19167affffffffffffffffffffffffffffffffffffffffffffffffffffff191681526020018473ffffffffffffffffffffffffffffffffffffffff1673ffffffffffffffffffffffffffffffffffffffff168152602001838152602001827affffffffffffffffffffffffffffffffffffffffffffffffffffff19167affffffffffffffffffffffffffffffffffffffffffffffffffffff19168152602001965050505050505060405180910390a150505050505050565b60007f5200000000000000000000000000000000000000000000000000000000000000827effffffffffffffffffffffffffffffffffffffffffffffffffffffffffffff19161480611f9c57507f5000000000000000000000000000000000000000000000000000000000000000827effffffffffffffffffffffffffffffffffffffffffffffffffffffffffffff1916145b80611fe857507f5300000000000000000000000000000000000000000000000000000000000000827effffffffffffffffffffffffffffffffffffffffffffffffffffffffffffff1916145b15611ff65760019050611ffb565b600090505b919050565b6000816006600060018681548110151561201657fe5b906000526020600020906003020160000160009054906101000a900473ffffffffffffffffffffffffffffffffffffffff1673ffffffffffffffffffffffffffffffffffffffff1673ffffffffffffffffffffffffffffffffffffffff1681526020019081526020016000208190555060019050929150505600a165627a7a72305820759ba978bb575c672e5699b6d69ab19efa91e1393d476f1a64ea1d8d07e2a6950029",
  "source": "pragma solidity ^0.4.0;\r\n\r\ncontract RockPaperScissorsGame {\r\n    \r\n    struct Player {\r\n        address addr;\r\n        bool hasSubmitted;\r\n        bytes32 hashedHand;\r\n        bool hasRevealed;\r\n        bytes5 hand;\r\n    }\r\n\r\n    bytes32 public channelName;\r\n    Player[] public players;\r\n    address public creator;\r\n    \r\n    bool gameOver;\r\n    uint gameTimeout;\r\n    uint defuncTimeout;\r\n    uint freeMoneyTimeout;\r\n    \r\n    mapping(address => uint) winnings;\r\n    \r\n    function RockPaperScissorsGame(bytes32 _channelName, address _playerOne, address _playerTwo) public payable {\r\n        channelName = _channelName;\r\n        creator = msg.sender;\r\n        gameOver = false;\r\n        players.push(Player(_playerOne, false, 0, false, 0));\r\n        players.push(Player(_playerTwo, false, 0, false, 0));\r\n        updateTimeouts();\r\n    }\r\n    \r\n    function getMyHasSubmitted() public view \r\n    returns (bool) {\r\n        var (found, me) = getMe();\r\n        require(found);\r\n        \r\n        return players[me].hasSubmitted;\r\n    }\r\n    \r\n    function getMyHashedHand() public view \r\n    returns (bytes32) {\r\n        var (found, me) = getMe();\r\n        require(found);\r\n        \r\n        return players[me].hashedHand;\r\n    }\r\n        bytes5 hand;\r\n    \r\n    function getMyHasRevealed() public view \r\n    returns (bool) {\r\n        var (found, me) = getMe();\r\n        require(found);\r\n        \r\n        return players[me].hasRevealed;\r\n    }\r\n    \r\n    function getMyHand() public view \r\n    returns (bytes5) {\r\n        var (found, me) = getMe();\r\n        require(found);\r\n        \r\n        return players[me].hand;\r\n    }\r\n    \r\n    function getMe() private view\r\n    returns (bool found, uint idx) {\r\n        if (players[0].addr == msg.sender) {\r\n            found = true;\r\n            idx = 0;\r\n        } else if (players[1].addr == msg.sender) {\r\n            found = true;\r\n            idx = 1;\r\n        } else {\r\n            found = false;\r\n        }\r\n    }\r\n    \r\n    function updateTimeouts() private {\r\n        gameTimeout = now + (1 hours);\r\n        defuncTimeout = gameTimeout + (1 weeks);\r\n        freeMoneyTimeout = gameTimeout + (4 weeks);\r\n    }\r\n    \r\n    event AllHandsSubmitted();\r\n    event GameCompletedNormal(address p1, uint p1Bal, bytes5 p1Hand, address p2, uint p2Bal, bytes5 p2Hand);\r\n    \r\n    ///  keccak256(bytes5, bytes32 secretSalt)\r\n    ///  where byte5 = rock(R), paper(P), scissor(S) role 'RRPSR', 'SRRSS', etc \r\n    function submitHashedHand(bytes32 _hashedHand) \r\n        onlyByPlayers \r\n        onlyBefore(gameTimeout) \r\n        gameNotOver\r\n    public {\r\n        var (current, opponent) = getPlayers();\r\n        \r\n        require(players[current].hasSubmitted == false);\r\n        \r\n        players[current].hashedHand = _hashedHand;\r\n        players[current].hasSubmitted = true;\r\n        \r\n        if (players[opponent].hasSubmitted) {\r\n            updateTimeouts(); // Avoid one player not giving the other player time to reveal near gameTimeout\r\n            AllHandsSubmitted();\r\n        }\r\n    }\r\n    \r\n    modifier gameNotOver() {\r\n        require(gameOver == false);\r\n        _;\r\n    }\r\n    \r\n    /// Should be able to execute this in local js\r\n    function createBidUtility(bytes5 _hand, bytes32 _secretSalt) public \r\n    returns (bytes32) {\r\n    \t//x = _hand;\r\n    \t//x.push(_hand[0]);\r\n        //x[0] = _hand[0];\r\n        //x[1] = _hand[1];\r\n        //x[1] = _hand[1];\r\n        //x[2] = _hand[2];\r\n        //x[3] = _hand[3];\r\n        //x[4] = _hand[4];\r\n        return keccak256(_hand, _secretSalt);\r\n    }\r\n    \r\n    function revealHand(bytes5 _hand, bytes32 _secretSalt)\r\n        onlyByPlayers\r\n        onlyBefore(gameTimeout)\r\n        gameNotOver\r\n    public {\r\n        var (current, opponent) = getPlayers();\r\n        \r\n        // Verify submitted hand and revealed hands match\r\n        require(players[current].hasSubmitted);\r\n        require(players[current].hasRevealed == false);\r\n        require(keccak256(_hand, _secretSalt) == players[current].hashedHand);\r\n        \r\n        players[current].hand = _hand;\r\n        players[current].hasRevealed = true;\r\n        \r\n        if (players[opponent].hasRevealed) {\r\n            // Game on\r\n            gameOver = true;\r\n            setResultBalances();\r\n        }\r\n    }\r\n    \r\n    function setResultBalances() private {\r\n        assert(gameOver);\r\n        \r\n        bool isDecided = false;\r\n        uint i;\r\n        uint length = players[0].hand.length;\r\n        for (i = 0; i < length && isDecided == false; i++) {\r\n            byte one = players[0].hand[i];\r\n            byte two = players[1].hand[i];\r\n            \r\n            bool oneValid = isValidHand(one);\r\n            bool twoValid = isValidHand(two);\r\n            if (oneValid && twoValid) {\r\n                if (one == 'R') {\r\n                    if (two == 'P') {\r\n                        isDecided = setWinner(1, this.balance);\r\n                    } else if (two == 'S') {\r\n                        isDecided = setWinner(0, this.balance);\r\n                    }\r\n                } else if (one == 'P') {\r\n                    if (two == 'R') {\r\n                        isDecided = setWinner(0, this.balance);\r\n                    } else if (two == 'S') {\r\n                        isDecided = setWinner(1, this.balance);\r\n                    }\r\n                } else {\r\n                    // one -> 'S'\r\n                    if (two == 'R') {\r\n                        isDecided = setWinner(1, this.balance);\r\n                    } else if (two == 'P') {\r\n                        isDecided = setWinner(0, this.balance);\r\n                    }\r\n                }\r\n            } else {\r\n                if (oneValid) {\r\n                    isDecided = setWinner(0, this.balance);\r\n                } else {\r\n                    isDecided = setWinner(1, this.balance);\r\n                }\r\n            }\r\n        }\r\n        if (isDecided == false) {\r\n            isDecided = setWinner(0, this.balance / 2);\r\n            isDecided = setWinner(1, this.balance / 2);\r\n        }\r\n        \r\n        GameCompletedNormal(players[0].addr, winnings[players[0].addr], players[0].hand,\r\n                            players[1].addr, winnings[players[1].addr], players[1].hand);\r\n    }\r\n    \r\n    function setWinner(uint idx, uint amt) private returns (bool) {\r\n        winnings[players[idx].addr] = amt;\r\n        return true;\r\n    }\r\n    \r\n    function withdraw() public {\r\n        uint amt = winnings[msg.sender];\r\n        if (amt > 0) {\r\n            winnings[msg.sender] = 0;\r\n            msg.sender.transfer(amt);\r\n        }\r\n    }\r\n    \r\n    function isValidHand(byte b) private pure returns (bool) {\r\n        if (b == 'R' || b == 'P' || b == 'S') {\r\n            return true;\r\n        } else {\r\n            return false;\r\n        }\r\n    }\r\n    \r\n    function getPlayers() private view returns (uint current, uint opponent) {\r\n        if (msg.sender == players[0].addr) {\r\n            return (0, 1);\r\n        } else if (msg.sender == players[1].addr) {\r\n            return (1, 0);\r\n        } else {\r\n            assert(false);\r\n        }\r\n    }\r\n    \r\n    modifier onlyBy(address _account) {\r\n        require(msg.sender == _account);\r\n        _;\r\n    }\r\n    \r\n    modifier onlyAfter(uint _time) { \r\n        require (now > _time);\r\n        _;\r\n    }\r\n    \r\n    modifier onlyBefore(uint _time) {\r\n        require (now <= _time);\r\n        _;\r\n    }\r\n    \r\n    modifier byAnyOneInvolved() {\r\n        require(msg.sender == players[0].addr || msg.sender == players[1].addr || msg.sender == creator);\r\n        _;\r\n    }\r\n    \r\n    modifier onlyByPlayers() {\r\n        require(msg.sender == players[0].addr || msg.sender == players[1].addr);\r\n        _;\r\n    }\r\n    \r\n    function getGameBalance() onlyByPlayers public view returns (uint) {\r\n        return this.balance;\r\n    }\r\n    \r\n    function withdrawlDueToTimeout() \r\n        onlyAfter(gameTimeout) \r\n        onlyByPlayers\r\n        gameNotOver \r\n    public {\r\n        // Must decide which player isn't following the rules and submitting on time\r\n        var (current, opponent) = getPlayers();\r\n        \r\n        require(players[current].hasSubmitted);\r\n        if (players[opponent].hasSubmitted == false) {\r\n            // opponent at fault - give out money\r\n            gameOver = true;\r\n            transferEntireBalanceToSender();\r\n        } else {\r\n            require(players[current].hasRevealed);\r\n            if (players[opponent].hasRevealed == false) {\r\n                // opponent at fault - give out money\r\n                gameOver = true;\r\n                transferEntireBalanceToSender();\r\n            }\r\n        }\r\n    }\r\n    \r\n    function transferEntireBalanceToSender() private {\r\n        if (this.balance > 0) {\r\n            msg.sender.transfer(this.balance);\r\n        }\r\n    }\r\n    \r\n    /// We have given enough time for the players to collect.\r\n    /// Let anyone involve collect in a reasonable time frame\r\n    function withdrawlDueToDefunc() onlyAfter(defuncTimeout) byAnyOneInvolved public {\r\n        if (this.balance > 0) {\r\n            msg.sender.transfer(this.balance);\r\n        }\r\n    }\r\n    \r\n    /// No one gives a shit - free money available to anyone (maybe keys lost?)\r\n    function withdrawlDueToLostPlayers() onlyAfter(freeMoneyTimeout) public {\r\n        if (this.balance > 0) {\r\n            msg.sender.transfer(this.balance);\r\n        }\r\n    }\r\n}\r\n\r\n",
  "sourcePath": "C:\\Etherum\\TableGamesWS\\table-games\\contracts\\RockPaperScissorsGame.sol",
  "compiler": {
    "name": "solc",
    "version": "0.4.18+commit.9cf6e910.Emscripten.clang"
  },
  "schemaVersion": "1.0.1",
  "updatedAt": "2018-01-15T00:29:23.780Z"
}